:020000040800F2
:1000000000000220214400087144000871440008E7
:1000100071440008714400087144000800000000A9
:100020000000000000000000000000007144000813
:100030007144000800000000714400088941000874
:1000400071440008714400087144000871440008BC
:1000500071440008714400087144000871440008AC
:10006000714400087144000871440008714400089C
:10007000714400087144000871440008714400088C
:10008000714400087144000871440008714400087C
:10009000714400087144000871440008714400086C
:1000A000714400087144000871440008714400085C
:1000B000714400087144000871440008714400084C
:1000C000714400087144000871440008714400083C
:1000D0007144000871440008714400082943000875
:1000E00071440008714400080000000071440008D9
:1000F000714400087144000871440008714400080C
:1001000071440008714400087144000871440008FB
:1001100071440008714400087144000871440008EB
:1001200071440008714400087144000871440008DB
:1001300071440008714400087144000871440008CB
:100140007144000871440008000000000000000035
:1001500071440008714400087144000871440008AB
:10016000714400087144000871440008714400089B
:100170007144000871440008714400080000000048
:10018000714400087144000871440008714400087B
:10019000714400087144000871440008714400086B
:1001A000714400087144000871440008714400085B
:1001B000714400087144000871440008714400084B
:1001C000714400087144000871440008714400083B
:1001D000714400087144000871440008714400082B
:1001E000714400087144000871440008714400081B
:1001F000714400087144000871440008714400080B
:1002000071440008714400087144000871440008FA
:1002100071440008714400087144000871440008EA
:100220007144000871440008714400080000000097
:1002300071440008714400087144000871440008CA
:1002400071440008714400087144000871440008BA
:1002500071440008714400087144000871440008AA
:10026000714400087144000871440008714400089A
:10027000714400087144000871440008714400088A
:100280007144000871440008714400080000000037
:080290007144000871440008EC
:1002A0000348044B834202D0034B03B11847704705
:1002B0008000002080000020000000000548064962
:1002C0000B1AD90F01EBA301491002D0034B03B164
:1002D00018477047800000208000002000000000C8
:1002E00010B5064C237843B9FFF7DAFF044B13B17E
:1002F0000448AFF300800123237010BD800000206C
:10030000000000007444000808B5044B1BB1044908
:100310000448AFF30080BDE80840CFE700000000CC
:10032000840000207444000880B400AF2B4B1B698C
:100330002A4A43F004031361294B1B68284A43F0FF
:1003400001031360264B00221A61254B1A682449C9
:10035000244B13400B60224B00229A61204B002259
:10036000DA611F4B00221A621D4B00229A621C4B5D
:100370000022DA621A4B00221A63194B00225A63D8
:10038000174B00229A63164B0022DA63144B0022AB
:100390001A64134B00225A64114B1B68104A23F451
:1003A000802313600E4B00221A660F4B5B6A0E4AC5
:1003B00043F4804353620D4B1A680D4B1340B3F165
:1003C000005F02D20B4B01221A60044B4FF0006217
:1003D0009A6000BFBD4680BC704700BF00ED00E0E2
:1003E000004402587FEDF6EAC00000580010005C9F
:1003F0000000FFFF08810051B0B58AB000AFA54BE7
:100400001B6903F03803182B00F2508101A252F847
:1004100023F000BF79040008AD060008AD0600080F
:10042000AD060008AD060008AD060008AD060008E0
:10043000AD0600088D040008AD060008AD060008F2
:10044000AD060008AD060008AD060008AD060008C0
:10045000AD06000893040008AD060008AD060008CC
:10046000AD060008AD060008AD060008AD060008A0
:10047000AD06000899040008864B1B68DB0803F0F2
:100480000303854A22FA03F37B6212E1834B7B620A
:100490000FE1834B7B620CE17E4B9B6A03F003030D
:1004A000FB617C4B9B6A1B0903F03F03BB61794BEB
:1004B000DB6A03F001037B61764B5B6BDB08C3F304
:1004C0000C037A6902FB03F3184602F0E3FB0346D0
:1004D0003B61BB69002B00F0D980FB69022B6BD01C
:1004E000FB69022B00F29280FB69002B03D0FB69B1
:1004F000012B37D08AE0674B1B68DB0803F003034E
:10050000654A22FA03F3FB60F86802F0C3FB044675
:10051000B86902F0BFFB03461946204602F0C6FC4C
:1005200003461D465B4B1B6BC3F30803184602F0E2
:10053000B1FB04464FF08C41386902F0B7FC03462A
:100540001946204602F0F6FA03464FF07E5118464F
:1005500002F0F0FA03461946284602F0F3FB034680
:100560003B627DE0B86902F095FB034619464D48B1
:1005700002F09CFC03461D46464B1B6BC3F308036D
:10058000184602F087FB04464FF08C41386902F0B0
:100590008DFC03461946204602F0CCFA03464FF084
:1005A0007E51184602F0C6FA03461946284602F064
:1005B000C9FB03463B6253E0B86902F06BFB03469C
:1005C0001946394802F072FC03461D46314B1B6B3D
:1005D000C3F30803184602F05DFB04464FF08C415C
:1005E000386902F063FC03461946204602F0A2FA7D
:1005F00003464FF07E51184602F09CFA0346194616
:10060000284602F09FFB03463B6229E0B86902F0EE
:1006100041FB03461946234802F048FC03461D46A9
:100620001C4B1B6BC3F30803184602F033FB044654
:100630004FF08C41386902F039FC034619462046D8
:1006400002F078FA03464FF07E51184602F072FA33
:1006500003461946284602F075FB03463B6200BF7D
:100660000C4B1B6B5B0A03F07F030133BB60B86864
:1006700002F010FB03461946386A02F017FC0346E5
:10068000184602F0AFFC03467B6212E000237B6257
:100690000FE000BF004402580090D00300093D0065
:1006A00000127A000024744A0024F44A114B7B6241
:1006B00000BF114B9B691B0A03F00F030F4AD35C69
:1006C0007B607A6A7B6822FA03F37B620A4B9B6940
:1006D00003F00F03094AD35C03F01F037A6A22FA7E
:1006E00003F3074A1360074A7B6A136000BF283789
:1006F000BD46B0BD00093D00004402588C440008CE
:1007000004000020000000200A22002100F074BA3A
:100710000A23002200F050BA70B50D4E0D4D761B25
:10072000B61006D0002455F8043B01349847A64281
:10073000F9D1094E094D761B03F09CFEB61006D088
:10074000002455F8043B01349847A642F9D170BD06
:10075000445C0008445C0008485C0008445C0008F5
:10076000830730B548D0541E002A3FD0CAB2034692
:1007700001E0013C3AD303F8012B9D07F9D1032C8A
:100780002DD9CDB245EA05250F2C45EA054536D9C8
:10079000A4F1100222F00F0C03F1200EE6444FEA00
:1007A000121C03F1100242E9045542E902551032CD
:1007B0007245F8D10CF1010214F00C0F03EB021298
:1007C00004F00F0C13D0ACF1040323F00303043343
:1007D000134442F8045B9342FBD10CF003042CB1A8
:1007E000CAB21C4403F8012B9C42FBD130BD6446C5
:1007F0001346002CF4D1F9E703461446BFE71A4626
:10080000A446E0E70CB410B59CB01EAB6FF00044FA
:10081000CDE906140291084953F8042B059102A969
:100820000193049400F0F0FB029B00221A701CB0AC
:10083000BDE8104002B070470802FFFF0EB410B5CB
:100840009DB06FF000411FABCDE90601049109494D
:1008500053F8042B0290084C0868019302A90594F0
:1008600000F0D2FB029B00221A701DB0BDE81040C0
:1008700003B07047080000200802FFFF80EA010271
:10088000844612F0030F4FD111F0030F32D14DF80F
:10089000044D11F0040F51F8043B0BD0A3F10132C9
:1008A0009A4312F0803F04BF4CF8043B51F8043BDC
:1008B00016D100BF51F8044BA3F101329A4312F054
:1008C000803FA4F101320BD14CF8043BA24312F05B
:1008D000803F04BF51F8043B4CF8044BEAD0234658
:1008E0000CF8013B13F0FF0F4FEA3323F8D15DF80A
:1008F000044B704711F0010F06D011F8012B0CF8D2
:10090000012B002A08BF704711F0020FBFD031F849
:10091000022B12F0FF0F16BF2CF8022B8CF80020D0
:1009200012F47F4FB3D1704711F8012B0CF8012B53
:10093000002AF9D1704700BFA2B330B540EA0104E4
:10094000A40784460B462AD09CF800000C78844209
:100950002FD1012A0DD0E64660B11EF8010F11F823
:10096000014F6FEA0E03A042134422D11CEB030394
:10097000F2D1002030BD0468194653F8045BA4F19D
:10098000013EAC4284462EEA040E00F104000BD175
:10099000043A84461946ECD01EF0803FE9D1032A80
:1009A000E9D8D1E7104670479CF800000C78A042C7
:1009B000D1D0001B30BD00BF194B70B51D68AA6DAA
:1009C00004460E4632B1314620460123BDE8704050
:1009D00000F02CB8502000F071F90246A865D0B1A3
:1009E00000230377C0E90033C0E90233C0E90433D0
:1009F000C0E90A33C0E90C33C0E90E33C0E9103353
:100A0000C0E9123383614362314620460123BDE8C9
:100A1000704000F00BB8034B0348572100F000F979
:100A2000080000207C5B0008945B0008F0B40746D7
:100A300010B33E468C4616F8010B01E0A04216D0DA
:100A40001CF8014B002CF9D1D8B116F8015B0C460B
:100A500001E0002BF9D014F8013B9D42F9D14DB1D2
:100A6000002306F8013C16603846F0BC70475BB1C5
:100A70003746DEE72E46F6E71768002FD9D138460D
:100A8000F3E7F0BC10607047166038463B70ECE747
:100A90000123FFF7CBBF00BF2DE9F04F814645484A
:100AA0008E4675461EF801CB10F80C4014F0080471
:100AB000F7D1BCF12D0FE34654D0BCF12B0F08BF8A
:100AC0009EF800B06FF0004808BF05F1020E1BB1A0
:100AD000102B4FD01F4604E0BBF1300F55D00A2336
:100AE0001F460025B8FBF7F6284607FB168A07E0E5
:100AF000864215D329D007FB00C001251EF801BB93
:100B0000ABF1300CBCF1090F06D9ABF1410CBCF1D3
:100B1000190F08D8ABF1370C63450DDD002DE7DA6E
:100B20004FF0FF35EAE7ABF1610CBCF1190F03D8C8
:100B3000ABF1570C6345F1DC002D0BDB04B14042F7
:100B40000AB195BB1160BDE8F08FE245D3DA4FF0F2
:100B5000FF35D3E72223C9F800301AB30EF1FF3175
:100B60004046EFE79EF800B04FF0004805F1020E56
:100B70000124ACE7BBF1300FACD19EF8000000F0CF
:100B8000DF00582807D01F46ABE79EF8003003F07F
:100B9000DF03582B0BD110279EF801B03B460EF116
:100BA000020E9EE74046BDE8F08F8046D6E7082358
:100BB0001F4696E7A1440008012B02D0242B00D841
:100BC0006AE710B500F052F816230360002010BD4C
:100BD000012A08D0242A134605D8064A84461068FC
:100BE0000A46614658E710B500F040F81623036046
:100BF000002010BD08000020012A08D0242A134636
:100C000005D8064A844610680A46614644E710B58E
:100C100000F02CF816230360002010BD080000200F
:100C200000B50B4C25681446EE681A4685B003469D
:100C30000D464CB107490095CDE9011430460649EF
:100C400000F028F800F068FF04490C46F3E700BF05
:100C500008000020C85B0008D85B0008D45B0008CF
:100C600008B513460022FFF7DBFF00BF014B1868F1
:100C7000704700BF080000200CB400B583B004AB7F
:100C800053F8042B019300F013FB03B05DF804EB61
:100C900002B070470EB410B583B005AB064C53F8E4
:100CA000042B01930146206800F002FB03B0BDE86D
:100CB000104003B0704700BF08000020024B0146FF
:100CC000186800F069B800BF08000020024B014618
:100CD000186800F003B800BF08000020002951D0B8
:100CE00038B551F8043C0C1F002BB8BFE41805467A
:100CF00001F0D4FC274A13682BB1A3420CD9216818
:100D0000601883422CD0636028461460BDE83840E8
:100D100001F0C6BCA3420FD81A465B68002BF9D17C
:100D200011685018844217D02DD363605460284650
:100D3000BDE8384001F0B4BC11685018A04215D08D
:100D400021D8216860188342EFD118685B6801449C
:100D5000C4E900135460EAE7236819441160E6E728
:100D600018685B680144C4E90013CDE720680144BA
:100D7000501883421160DAD1D3E900030144C2E97B
:100D80000013D4E770470C232B602846BDE8384099
:100D900001F086BC9C000020F8B5CD1C25F00305B1
:100DA00008350C2D38BF0C25002D064623DBA94243
:100DB00021D8254F01F072FC3A6822B3144603E0B3
:100DC00063682246FBB11C4623685B1BF8D40B2BDF
:100DD00015D8636894420CBF3B605360304601F005
:100DE0005FFC04F10B00231D20F00700C21A01D0A4
:100DF0001B1AA350F8BD0C2333600020F8BD2360FC
:100E00001C442560EAE77968C9B12946304600F0FC
:100E10008BFD431C0CD0C41C24F00304A04205D05D
:100E2000211A304600F080FD013001D02560D5E761
:100E30000C233046336001F033FC0020F8BD30460F
:100E400000F072FD7860E0E79C0000202DE9F0479B
:100E50008F689F420C461D46164638D882468889C0
:100E600010F4906F0ED108683D462A46314601F0D5
:100E700099FBA2682368D21B2B44A2602360002048
:100E8000BDE8F0874B69096903EB4308236808EB69
:100E9000D878A3EB01096B1C4FEA68084B44434523
:100EA000424684BF98464246430513D511465046F4
:100EB000FFF772FF074608B321694A4601F0D8FAE6
:100EC000A38923F4906343F08003A38107E00868BB
:100ED0001F46CAE7504601F0E5FB074650B107EB55
:100EE0000900A8EB09032761C4F81480A3602060FF
:100EF0002F46BAE721695046FFF7F0FE0C23CAF8E7
:100F00000030A38943F040034FF0FF30A381B7E7DF
:100F10002DE9F04F936883B09146002B6DD0176890
:100F20008D6880460C460868083743E0A38913F4AF
:100F3000906F2ED0D4E90415A0EB010A05EB45050E
:100F400005EBD5750AEB06006D100130A8422A4664
:100F500084BF05462A465B0536D511464046FFF755
:100F60001BFF00283AD052462169019001F080FA17
:100F7000A289019B22F4906242F08002A281A5EB3B
:100F80000A0203EB0A006561A26023612060354616
:100F9000B2465946524601F005FBD9F80830A1681F
:100FA00020684D1B50449E1BA5602060C9F8086056
:100FB0001EB3083757E902B6002EFAD0B542AA464A
:100FC000B4D93546B246E4E7404601F06BFB034630
:100FD0000028D4D121694046FFF780FE0C23C8F8D1
:100FE0000030A389002243F040034FF0FF30A3817B
:100FF000C9E9012203B0BDE8F08F0020C9F8040060
:1010000003B0BDE8F08F00BF2DE9F04F1C468B897F
:101010001D069DB088468146924603D50B69002B7C
:1010200000F0EF800023099320238DF8293030232E
:101030008DF82A309AF800307B4D03940126002B5E
:1010400072D0544603E014F8013F002B76D0252BD4
:10105000F9D1B4EB0A0B74D12278002A64D00023B2
:101060004FF0FF32CDE90523049307938DF85330F9
:101070001A93013404E0049A06FA03F31343049329
:10108000A246052214F8011B284601F0A1F9431BD2
:101090000028F0D1049BD80644BF20228DF85320AD
:1010A00019079AF8001044BF2B228DF853202A29E3
:1010B00054D1039A11680432002903927CDB079112
:1010C0009AF801100AF1010A2E2959D0574C03222F
:1010D000204601F07DF940B1049B001B402404FA36
:1010E00000F0034304930AF1010A1AF8011B504867
:1010F0008DF82810062201F06BF9002862D04D4BC4
:10110000002B52D003AA00924B4B424604A94846FA
:10111000AFF3008007467A1C06D0099B3B44099335
:101120009AF80030002B8CD1B8F80C305B0654BF15
:1011300009984FF0FF301DB0BDE8F08FB4EB0A0BFB
:10114000F2D05B46524641464846FFF77FFE0130EB
:10115000EAD0099B22785B4409937EE7A1F1300233
:10116000092AB1D8079B1AF8011F03EB830302EB8E
:101170004303A1F13002092AF5D92E290793A5D1FD
:101180009AF801102A2927D1039B9AF802101A68AD
:1011900005920433002A0AF102000393B8BF4FF00E
:1011A000FF338246B8BF059390E7039B073323F0D4
:1011B000070308330393B0E7494243F00203079162
:1011C00004937DE703AA00921B4B424604A94846BC
:1011D00000F052FA07469EE7A1F130020023092AE7
:1011E00005930AF1010A3FF671AF1AF8011F03EBEC
:1011F000830302EB4303A1F13002092AF5D90593D9
:1012000064E74021FFF7C8FDC8F80000C8F81000E7
:1012100018B14023C8F8143004E70C23C9F8003093
:101220004FF0FF3087E700BF085C0008105C000843
:10123000145C0008000000004D0E00089368013B9C
:10124000002B936005DAD2F818C0634507DB0A2942
:1012500005D01368581C106019700846704700F0DC
:1012600075BB00BF9BB1F8B5134406460F46541E2C
:101270005D1E01E0AC4208D014F8011F3A4630462A
:10128000FFF7DCFF431CF5D1F8BD0020F8BD0020BE
:10129000704700BF936810B5144613B953601846E1
:1012A00010BD00F049FE0023C4E9013310BD00BFAA
:1012B0002DE9F04F88469FB015461C46814618B16F
:1012C0008369002B00F0A280924B984500F0A48027
:1012D000914B984500F0B180904B984508BFD9F8E4
:1012E0000C80B8F80C30180740F19D80D8F8103009
:1012F000002B00F0988000230B932978884E0594EA
:1013000020238DF8313030238DF832300127002929
:1013100074D02C460B4604E014F8013F002B00F07B
:101320008F80252BF8D1B4EB050B40F08C8023780F
:10133000002B63D000234FF0FF32CDE90723069343
:1013400009938DF85B301C93013404E0069A07FA88
:1013500003F3134306932546052214F8011B304678
:1013600001F036F8831B0028F0D1069BD90644BF54
:1013700020228DF85B2029781A0744BF2B228DF894
:101380005B202A2970D1059A116804320029059240
:10139000C0F29B800991697801352E2976D0614C85
:1013A0000322204601F014F838B1069B001B4024AC
:1013B00004FA00F003430693013515F8011B5A485F
:1013C0008DF83010062201F003F8002800F0838029
:1013D000564B002B6DD005AA0092554B424606A9EC
:1013E0004846AFF300800390039B013306D00B9B6C
:1013F000039A297813440B9300298AD1B8F80C304A
:101400005B0617D40B981FB0BDE8F08F00F074FD99
:10141000404B98457FF45CAFD9F80480B8F80C30A5
:1014200018073FF563AF4146484600F0F3FA00283D
:101430003FF461AF4FF0FF30E5E7D9F8088050E79F
:10144000B4EB050BDAD0AA46C5F1010503E09345DC
:1014500036D91AF8011F42464846FFF7EFFE013021
:1014600005EB0A02F3D1C9E7A1F13002092A94D8A9
:10147000099B15F8011F03EB830302EB4303A1F162
:101480003002092AF5D92E29099388D169782A29A9
:101490002BD1059BA9781A6807920433002A05F11D
:1014A00002000593B8BF4FF0FF330546B8BF07935E
:1014B00075E7059B073323F007030833059396E789
:1014C0000B9A23785A440B9232E7494243F00203C5
:1014D000099106935FE705AA0092154B424606A9BB
:1014E000484600F0C9F803907EE7A1F130020023DE
:1014F000092A079305F101053FF651AF15F8011FC1
:1015000003EB830302EB4303A1F13002092AF5D96F
:10151000079344E7E4450008C4450008A4450008D3
:10152000085C0008105C0008145C00080000000063
:101530006512000810B4044C84461346206810BCA1
:101540000A466146FFF7B4BE080000202DE9F047C7
:1015500091461E460A698B68DDF820809A42B8BF22
:101560001A46C9F8002091F843300C46054613B1DD
:101570000132C9F80020226891065DD5D9F8003003
:101580000233C9F80030226812F0060F11461ED14E
:10159000E168CB1A002BD8BF114618DD04F1190AF7
:1015A000002706E0D9F80030E268A2EB030CBC4546
:1015B0000CDD0123524631462846C047013007F171
:1015C0000107EFD14FF0FF30BDE8F087216894F8B4
:1015D0004330003B18BF01238A060AD5E1185A1C84
:1015E000302081F84300224494F8451082F84310DB
:1015F000023304F1430231462846C0470130E1D0AE
:10160000236803F00603042B1DD0A36822699342CC
:1016100025DD00279B1A1F4404F11A09002401E06C
:10162000BC421CDA01234A4631462846C0470130F5
:1016300004F10104F4D1C5E712F0060F12D0003B0B
:1016400018BF0123D5E7D9F80030E1682269C91A2B
:10165000A368934221EAE177DCDC0029DCDC00208E
:10166000BDE8F087E168D9F80030CB1A002BD8BF6D
:10167000114693DCABE700BF2DE9F043174685B078
:101680000A7E0C9D0C460646984601F1430C002A42
:1016900033D0A2F15803D9B2202967D8202B65D8BE
:1016A000DFE813F0DE00640064006400640064009E
:1016B00064006400640064006400A3006E006400C1
:1016C0006400640064006E006400640064006400F0
:1016D00021007F00C00064006400AE0064007F0051
:1016E00064006400E50023681A0640F104812B6859
:1016F0006269191D29601B681A600023E146236195
:10170000CDF800803B4603AA21463046FFF71EFF76
:10171000013020D023694A4639463046C04701305F
:1017200019D02368E06803999B0719D5431A002B49
:1017300016DD04F11909002504E0E0680399431A55
:10174000AB420DDD01234A4639463046C0470130E1
:1017500005F10105F1D14FF0FF3005B0BDE8F08390
:101760008842B8BF084605B0BDE8F083012384F87D
:101770004220236104F14209002384F84330BFE78B
:101780002368190602D45A0600F1C18029680A6844
:10179000043129601146002A6BDBDFF884E10A2559
:1017A00010E02368180640F19C802B68191D296001
:1017B0001968DFF86CE16F2A0CBF08250A250023A1
:1017C00084F843306268A260002A7FDB236823F03C
:1017D0000403236000295BD1002A79D1E146082D5A
:1017E00065D0ACEB090323618AE72B6801221968F5
:1017F00004332B6004F1420984F842102261BBE7F4
:101800002B686268191D2960D3F8009000214846B2
:1018100000F0DEFD002800F08180A0EB0900606090
:101820002061A9E7236843F0200323607822DFF8D2
:10183000F4E084F845202A68111D2960190643D474
:101840005D0641D51188D80744BF43F020032360CB
:10185000002944D1236823F0200323601025AEE73C
:10186000582384F84530DFF8B8E02368E3E72368BD
:10187000DCE76268A2602D20002AC1F1000184F833
:10188000430002DB23F004032360DFF894E00A2521
:10189000E146B1FBF5F305FB13100A46AA421EF818
:1018A000001009F8011D1946F3D2082D99D12368BB
:1018B000D90796D5626823699A4292DC302309F8E9
:1018C000013C09F1FF398CE71168BCE70029DFD141
:1018D0009EF8003084F8423004F142097FE7102579
:1018E0006DE713F0400F2B6803F1040129600CBF72
:1018F000196819885DE713F0400F2B68626903F1DE
:10190000040129601B6814BF1A801A60F5E62A6872
:10191000B2F9001004322A600A463CE760687FE7AB
:101920001C5C0008305C000838B5074D00220446F6
:1019300008462A6001F0AEFB431C00D038BD2B687E
:10194000002BFBD0236038BDA4000020F8B50D4665
:101950001446064608B1836943B3254B9C422AD0FE
:10196000244B9C4229D0244B9C4208BFF468A38995
:10197000A269A2601A0722D5236903B322686169AC
:10198000D31AEDB299422F4629DD0133A1680139FE
:10199000A160511C2160157062699A4216D0A3891A
:1019A000DB0701D50A2D11D03846F8BD00F0A4FAA6
:1019B0000F4B9C42D4D17468D9E7B468D7E721466D
:1019C000304600F027F838B92369D7E7214630467A
:1019D00000F02CF90028E7D04FF0FF37E4E721466C
:1019E000304600F023F90028F6D122680123CDE724
:1019F000E4450008C4450008A445000810B4044CA0
:101A000003460A46206810BC1946FFF79FBF00BF77
:101A1000080000203C4B70B51D6806460C460DB111
:101A2000AB69E3B1394B9C421FD0394B9C424DD03E
:101A3000384B9C4208BFEC68B4F90C3018079AB2D6
:101A400019D5216911B312F001002FD00020A06038
:101A500060694042A06100292ED0002070BD284658
:101A600000F04AFA294B9C42DFD16C68B4F90C3083
:101A700018079AB2E5D4D1063ED5520728D4216979
:101A800043F00803A3819AB20029DCD102F420704C
:101A9000B0F5007FD7D02146304600F005FCB4F900
:101AA0000C3021699AB212F00100CFD1950758BFCE
:101AB0006069A0600029D0D1120658BF0846CDD574
:101AC00043F04003A3814FF0FF3070BDAC68B3E733
:101AD000616B51B104F14402914204D03046FFF7EA
:101AE000FDF8B4F90C300022626321690022C4E9D8
:101AF000001223F02403C3E7092243F040033260BD
:101B00004FF0FF30A38170BD08000020E4450008BD
:101B1000C4450008A445000808B5062000F07EFE74
:101B2000012001F0CDFA00BFF8B58B890C461907EA
:101B300007463AD46268002A53DDE66A002E4ED08A
:101B400000223D683A6013F480524ED1216A01238D
:101B50003846B047421C5AD0A389E66A5B0705D5D0
:101B60006368C01A636B0BB1236CC01A216A02460A
:101B700000233846B047411C39D13B68002B36D092
:101B80001D2B01D0162B49D123690022C4E9003254
:101B9000616B3D6019B304F14403994202D03846A9
:101BA000FFF79CF800206063F8BD2669BEB1256888
:101BB00026609A070CBF63690023AD1BA3600CE08D
:101BC000D4F828C0216A2B4632463846E047B0F1A7
:101BD000000CA5EB0C05664412DD002DF0DC0020A6
:101BE000F8BD226C002AA8DCF9E7606DB6E7002397
:101BF000636023692360A389DB04C9D56065C7E7F7
:101C0000A38943F040034FF0FF30A381F8BD3B6848
:101C1000002BA1D01D2B06D0162B04D0A38943F096
:101C20004003A381F8BD3D60D9E700BF38B50B691B
:101C3000BBB10C46054608B18369B3B10D4B9C425C
:101C400011D00D4B9C4213D00C4B9C4208BFEC684A
:101C5000B4F90C302BB121462846BDE83840FFF7D7
:101C600063BF002038BD6C68F2E700F045F9E5E796
:101C7000AC68EDE7E4450008C4450008A445000849
:101C800038B540B303690446E3B1174B1D680DB185
:101C9000AB69CBB1154B9C420FD0154B9C4221D068
:101CA000144B9C4208BFEC68B4F90C3053B1214688
:101CB0002846BDE83840FFF737BF6C68B4F90C30F0
:101CC000002BF4D1002038BD284600F015F9074B51
:101CD0009C42E2D1F1E7084B08491868BDE838405A
:101CE00000F0BEBAAC68DFE708000020E445000859
:101CF000C4450008A44500089C4400082D1C0008A9
:101D000000207047014900F0ABBA00BF2D1C00084D
:101D10000020704770B568224D1E02FB05F50E4687
:101D200005F17401FFF738F8044640B100210C308A
:101D3000C4E90016A06005F16802FEF711FD204617
:101D400070BD00BF274B2DE9F0411E68B3690746FF
:101D500053B348364FF00408D6E90134013B04D5AB
:101D60001EE05A1C04F168041AD0B4F90C50013B6F
:101D7000002DF6D11C4B6566C4E90055C4E9025339
:101D8000C4E90455A5610822294604F15C00FEF768
:101D9000E7FCC4E90D55C4E912552046BDE8F081C1
:101DA00035682DB12E46D7E7304600F01FF8D0E752
:101DB0004FF4D6713846FEF7EFFF044668B1056070
:101DC000C0F804800C302946A06025464FF4D0723C
:101DD000FEF7C6FC34602E46BEE70C2330603B6045
:101DE000DBE700BF9C4400080100FFFF2DE9F84F2E
:101DF000344B35491A68816290424FF00003C0E9C4
:101E00001233036504BF012383610546FFF79AFF80
:101E100068602846FFF796FFA8602846FFF792FF04
:101E20006F68E86000240423C7E9024308222146C2
:101E3000C7E90044C7E904447C66BC6107F15C0063
:101E4000FEF78EFCDFF884B0AE68DFF884A0DFF820
:101E50008490DFF88480214BC7F828A0C7E9087B6D
:101E6000C7F82C90C7F830800822F360C6E9004418
:101E7000C6E904447466B460B461214606F15C00AE
:101E8000FEF76EFCC6E9086BC6E90AA9C6F8308001
:101E9000EE68134BF360C6E90044C6E90444746677
:101EA000B460B4612146082206F15C00FEF758FCDC
:101EB0000123C6E9086BC6E90B98C6F828A0AB61F8
:101EC000BDE8F88F9C440008051D00088D29000816
:101ED000B5290008F5290008152A000809000100A5
:101EE00012000200024B0349186800F0B9B900BFA4
:101EF0009C4400082D1C0008836903B976E77047ED
:101F0000704700BF704700BF704700BF704700BFF9
:101F1000024B0349186800F083B900BF0800002095
:101F2000011D0008024B0349186800F079B900BF91
:101F300008000020111D00089368002B00F081802C
:101F40002DE9F04FB1F90C300C461907804683B0EB
:101F5000174698B223D523690BB310F002033D68EE
:101F60002BD04FF0000ADFF8B4B256465E45334638
:101F7000524628BF5B464046002E4FD0216AD4F817
:101F800028C0E047002852DDBB681B1A8244361A7D
:101F9000BB60002BEAD1002003B0BDE8F08F2146E2
:101FA0004046FFF737FD002840F03481B4F90C308B
:101FB0003D6898B210F00203D3D110F0010942D16C
:101FC0004E463EB38205D4F808B040F18180B34557
:101FD0005A4600F2B18010F4906F40F0BE80206845
:101FE0000192494600F0DEFAA3682168019AA3EB4A
:101FF0000B030A44B246A36022600026B868A0EB37
:102000000A00D144B8600028C5D0B4F90C0080B2F1
:10201000002ED7D1D5E900960835D2E7D5E900A63C
:102020000835A3E721464046FFF700FE80B3B4F928
:102030000C3043F040034FF0FF30A38103B0BDE804
:10204000F08F002070471E46AA46994618461D4646
:1020500056B388B34A46D4E904132068B24228BF75
:102060003246884205D9A16803EB010B5A4500F3BB
:10207000A780934264DC216AD4F828C02A464046EF
:10208000E047B0F1000BD2DDB9EB0B09CAD001205B
:10209000BB68A3EB0B035D44A6EB0B06BB60002BF8
:1020A0003FF479AF002ED4D10AF1080353E9025668
:1020B0009A460833002EF9D032460A21284600F00D
:1020C00087F9002800F09D800130A0EB0509C1E7E9
:1020D00020682369984217D86369B34214D86FF017
:1020E0000042B24228BF3246216A92FBF3F2D4F892
:1020F00028C002FB03F340464A46E047B0F1000A1D
:1021000095DDA6EB0A0679E7B345DA4628BFB24665
:102110005246494600F046FAA3682268A3EB0A0338
:102120005244A3602260002BEBD121464046FFF7CA
:102130007DFD0028E5D07AE72068B34632464FE7B8
:102140002946019200F02EFA019AA3689B1AA36017
:10215000236813442360934696E723682169A3EB21
:10216000010B636903EB430A0AEBDA7A0BF1010313
:102170004FEA6A0A33445345524684BF9A46524650
:1021800043052CD511464046FEF706FE00283BD0FD
:102190005A462169019000F06BF9A289019B22F453
:1021A000906242F08002A28103EB0B002361AAEB54
:1021B0000B03C4F814A0A3602060B34632460FE7B7
:1021C00029465A4600F0EEF923685B442360214615
:1021D0004046FFF72BFD00283FF456AF27E7404667
:1021E00000F060FA03460028DED121694046FEF780
:1021F00075FDB4F90C300C2223F08003C8F80020E0
:1022000017E7721C914626E70C22B4F90C30C8F887
:1022100000200EE74FF0FF30BEE600BF00FCFF7F5E
:102220002DE9F041884600F148070026D7E901541E
:10223000013D0FD4A389012B05F1FF3506D9B4F96F
:102240000E300133204601D0C04706436B1C04F119
:102250006804EFD13F68002FE8D13046BDE8F08137
:102260002DE9F8430746884600F148064FF000097B
:10227000D6E90154013D11D4A389012B05F1FF35A5
:1022800008D9B4F90E300133214603D03846C0478F
:1022900049EA00096B1C04F16804EDD13668002E90
:1022A000E6D14846BDE8F883F0B58B890C4699071E
:1022B00097B007D504F147030122C4E90432236033
:1022C00017B0F0BDB4F90E10002905462DDB6A46A3
:1022D00000F0CCFB002827DB019E06F470464FF48B
:1022E0008067A6F50056B6FA86F63946284676097E
:1022F000FEF752FD30B3A3891A4AAA6243F0800365
:10230000C4E90407A3812060002ED9D0B4F90E10CF
:10231000284600F0C1FB0028D2D0A38923F0030394
:1023200043F00103A381CBE7A38913F0800F14BF0F
:1023300040274FF48067394628460026FEF72CFDDB
:102340000028D8D1B4F90C309A05B9D423F003038E
:1023500004F1470243F002030121C4E90421A381EF
:102360002260ADE7051D000870B50C46B1F90E10EE
:10237000002996B016461D4613DB6A4600F076FB30
:1023800000280EDB019901F47041A1F50051B1FA6A
:1023900081F14FF48063490900202960336016B051
:1023A00070BDB4F90C3000221B062A6004D540230E
:1023B0000020336016B070BD4FF48063002033609E
:1023C00016B070BD0000000000000000000000001A
:1023D00001F0FF01102A2BDB10F0070F08D010F8D6
:1023E000013B013A8B422DD010F0070F42B3F6D1DA
:1023F000F0B441EA012141EA014122F007047FF0F3
:1024000000070023F0E80256083C85EA010586EA49
:10241000010685FA47F5A3FA87F586FA47F6A5FA85
:1024200087F68EB9EED1F0BC01F0FF0102F0070291
:1024300032B110F8013B013A83EA010313B1F8D13C
:102440000020704701387047002D06BF354603381D
:10245000073815F0010F07D1013015F4807F02BF56
:10246000013015F4C03F0130F0BC0138704700BFA7
:10247000844641EA000313F003036DD1403A41D38F
:1024800051F8043B40F8043B51F8043B40F8043B4E
:1024900051F8043B40F8043B51F8043B40F8043B3E
:1024A00051F8043B40F8043B51F8043B40F8043B2E
:1024B00051F8043B40F8043B51F8043B40F8043B1E
:1024C00051F8043B40F8043B51F8043B40F8043B0E
:1024D00051F8043B40F8043B51F8043B40F8043BFE
:1024E00051F8043B40F8043B51F8043B40F8043BEE
:1024F00051F8043B40F8043B51F8043B40F8043BDE
:10250000403ABDD2303211D351F8043B40F8043B7D
:1025100051F8043B40F8043B51F8043B40F8043BBD
:1025200051F8043B40F8043B103AEDD20C3205D38D
:1025300051F8043B40F8043B043AF9D2043208D085
:10254000D2071CBF11F8013B00F8013B01D30B88F7
:1025500003806046704700BF082A13D38B078DD0D5
:1025600010F003038AD0C3F10403D21ADB071CBFA7
:1025700011F8013B00F8013B80D331F8023B20F811
:10258000023B7BE7043AD9D3013A11F8013B00F84A
:10259000013BF9D20B7803704B7843708B788370D2
:1025A0006046704788420DD98B1883420AD900EBE8
:1025B000020CBAB1624613F801CD02F801CD99427E
:1025C000F9D170470F2A0ED8034602F1FF3C4AB1F9
:1025D0000CF1010C013B8C4411F8012B03F8012F85
:1025E0006145F9D1704740EA01039B0750D1A2F140
:1025F000100370B501F1200C23F00F0501F1100E4E
:1026000000F11004AC441B095EF8105C44F8105C47
:102610005EF80C5C44F80C5C5EF8085C44F8085CFE
:102620005EF8045C44F8045C0EF1100EE64504F11B
:102630001004E9D1013312F00C0F01EB031102F089
:102640000F0400EB031327D0043C24F003064FEAE9
:10265000940C1E441C1F8E465EF8045B44F8045F15
:10266000B442F9D10CF1010402F0030203EB84033C
:1026700001EB840102F1FF3C4AB10CF1010C013B7A
:102680008C4411F8012B03F8012F6145F9D170BD7D
:1026900002F1FF3C03469BE72246EBE7704700BF91
:1026A000704700BFF8B51446F9B1CAB106460D46E9
:1026B00000F01AFAA04202D32F463846F8BD214650
:1026C0003046FEF769FB07460028F6D02246294629
:1026D000FFF7CEFE30462946FEF700FB3846F8BD30
:1026E0002746FEF7FBFA3846F8BDBDE8F84011462C
:1026F000FEF752BB38B5446C0CB1002038BD8021C8
:102700000546FEF749FB0246686430B1031F7C3280
:1027100043F8044F9342FBD1EFE74FF0FF3038BD51
:102720001F29F8B5054608D8466C0C4617464EB129
:1027300056F8240046F82470F8BD162303604FF0C5
:10274000FF30F8BD8021FEF727FB0646686440B1E4
:10275000031F00F17C05002143F8041F9D42FBD1BB
:10276000E6E74FF0FF30F8BD1F2938B5054620D801
:10277000426C0C466AB152F8213053B1012B16D08D
:10278000591C10D00025204642F82450984728466E
:1027900038BD284600F0F8F8224601462846BDE834
:1027A000384000F0DBB816230360012038BD00205C
:1027B00038BD162303604FF0FF3038BD1F292AD8DB
:1027C000426C38B50C46054682B152F8243002EB13
:1027D00084024BB1591C19D0012B15D0002520467D
:1027E00015609847284638BD012038BD8021FEF786
:1027F000D3FA0246686458B1031F00217C3043F8C5
:10280000041F9842FBD1E0E7032038BD022038BD09
:102810004FF0FF3038BD4FF0FF30704738B5144BE4
:102820001F281D681FD86A6C044662B152F8203018
:102830004BB1012B15D0591C0FD0002542F8205068
:102840009847284638BD284600F09EF822460146A3
:102850002846BDE8384000F081B816232B600120DF
:1028600038BD002038BD16232B604FF0FF3038BD37
:1028700008000020124B1F2870B51E6808D80D46AE
:10288000716C044649B151F8240041F8245070BDE0
:10289000162333604FF0FF3070BD80213046FEF7C5
:1028A0007BFA0146706440B1031F00F17C0C0022EA
:1028B00043F8042F6345FBD1E5E74FF0FF3070BDCF
:1028C0000800002038B50B4B1D686C6C0CB1002063
:1028D00038BD80212846FEF75FFA686438B1031FCF
:1028E00000F17C0243F8044F9342FBD1EFE74FF035
:1028F000FF3038BD0800002038B5174B1F281D6871
:1029000026D86A6C044682B152F8243002EB840265
:102910004BB1591C1AD0012B16D00025204615604A
:102920009847284638BD012038BD80212846FEF74B
:1029300033FA0246686458B1031F00217C3043F823
:10294000041F8342FBD1DFE7032038BD022038BDDE
:102950004FF0FF3038BD00BF0800002070B50C46B6
:10296000084D03460026204611461C462E6000F006
:1029700079FB431C00D070BD2B68002BFBD023607B
:1029800070BD00BFA400002000F05CBB10B50C4679
:10299000B1F90E1000F0B2F8002803DB636D0344B8
:1029A000636510BDA38923F48053A38110BD00BFCC
:1029B000002070472DE9F0410C46B1F90C101F467C
:1029C000CB05054616460BD421F48051A1813B4628
:1029D000B4F90E1032462846BDE8F04100F01EB8AA
:1029E000B4F90E100223002200F068F8B4F90C10BC
:1029F000EAE700BF10B50C46B1F90E1000F05EF822
:102A0000A389421C0EBF23F4805343F480536065B6
:102A1000A38110BDB1F90E1000F016B838B50C4600
:102A2000084D8446114620461A4600232B60644612
:102A300000F03EFB431C00D038BD2B68002BFBD0C0
:102A4000236038BDA400002038B5074D002204469D
:102A500008462A6000F0E6FA431C00D038BD2B6817
:102A6000002BFBD0236038BDA400002070B50C46BD
:102A7000084D03460026204611461C462E6000F0F5
:102A8000D9FA431C00D070BD2B68002BFBD023600B
:102A900070BD00BFA400002038B5074D00220446D9
:102AA00008462A6000F0D6FA431C00D038BD2B68D7
:102AB000002BFBD0236038BDA400002038B50C46A5
:102AC000084D8446114620461A4600232B60644672
:102AD00000F0D0FA431C00D038BD2B68002BFBD08F
:102AE000236038BDA400002051F8040C0028A0F198
:102AF0000400BCBF0B58C018704700BF38B50C4667
:102B0000084D8446114620461A4600232B60644631
:102B100000F0B8FA431C00D038BD2B68002BFBD066
:102B2000236038BDA400002080F0004002E000BF18
:102B300081F0004142001FBF5FEA410392EA030FA8
:102B40007FEA226C7FEA236C6AD04FEA1262D2EBF2
:102B50001363C1BFD218414048404140B8BF5B42F7
:102B6000192B88BF704710F0004F40F4000020F090
:102B70007F4018BF404211F0004F41F4000121F0A6
:102B80007F4118BF494292EA030F3FD0A2F10102F0
:102B900041FA03FC10EB0C00C3F1200301FA03F12E
:102BA00000F0004302D5494260EB4000B0F5000F51
:102BB00013D3B0F1807F06D340084FEA310102F110
:102BC0000102FE2A51D2B1F1004F40EBC25008BFC2
:102BD00020F0010040EA03007047490040EB00008C
:102BE000013A28BFB0F5000FEDD2B0FA80FCACF18D
:102BF000080CB2EB0C0200FA0CF0AABF00EBC250BA
:102C000052421843BCBFD0401843704792F0000FA7
:102C100081F4000106BF80F400000132013BB5E7FA
:102C20004FEA41037FEA226C18BF7FEA236C21D070
:102C300092EA030F04D092F0000F08BF08467047D5
:102C400090EA010F1CBF0020704712F07F4F04D1A3
:102C5000400028BF40F00040704712F100723CBFB6
:102C600000F50000704700F0004343F0FE4040F4E0
:102C7000000070477FEA226216BF08467FEA23639E
:102C80000146420206BF5FEA412390EA010F40F489
:102C9000800070474FF0000304E000BF10F00043D5
:102CA00048BF40425FEA000C08BF704743F09643BC
:102CB00001464FF000001CE050EA010208BF7047D7
:102CC0004FF000030AE000BF50EA010208BF70475E
:102CD00011F0004302D5404261EB41015FEA010C73
:102CE00002BF84460146002043F0B64308BFA3F16B
:102CF0008053A3F50003BCFA8CF2083AA3EBC2534D
:102D000010DB01FA02FC634400FA02FCC2F120026B
:102D1000BCF1004F20FA02F243EB020008BF20F0A2
:102D20000100704702F1200201FA02FCC2F1200208
:102D300050EA4C0021FA02F243EB020008BF20EAFD
:102D4000DC7070474FF0FF0C1CEAD0521EBF1CEA2B
:102D5000D15392EA0C0F93EA0C0F6FD01A4480EA19
:102D6000010C400218BF5FEA41211ED04FF0006302
:102D700043EA501043EA5111A0FB01310CF000402E
:102D8000B1F5000F3EBF490041EAD3715B0040EA54
:102D9000010062F17F02FD2A1DD8B3F1004F40EB24
:102DA000C25008BF20F00100704790F0000F0CF0F7
:102DB000004C08BF49024CEA502040EA51207F3ABB
:102DC000C2BFD2F1FF0340EAC250704740F4000096
:102DD0004FF00003013A5DDC12F1190FDCBF00F087
:102DE00000407047C2F10002410021FA02F1C2F135
:102DF000200200FA02FC5FEA310040F1000053EAD1
:102E00004C0308BF20EADC70704792F0000F00F01E
:102E1000004C02BF400010F4000F013AF9D040EA24
:102E20000C0093F0000F01F0004C02BF490011F4B8
:102E3000000F013BF9D041EA0C018FE70CEAD153B6
:102E400092EA0C0F18BF93EA0C0F0AD030F0004C36
:102E500018BF31F0004CD8D180EA010000F00040EA
:102E6000704790F0000F17BF90F0004F084691F0A8
:102E7000000F91F0004F14D092EA0C0F01D14202E2
:102E80000FD193EA0C0F03D14B0218BF084608D1AB
:102E900080EA010000F0004040F0FE4040F40000F5
:102EA000704740F0FE4040F4400070474FF0FF0C88
:102EB0001CEAD0521EBF1CEAD15392EA0C0F93EACF
:102EC0000C0F69D0A2EB030280EA010C49024FEA21
:102ED000402037D04FF0805343EA111143EA1013DA
:102EE0000CF000408B4238BF5B0042F17D024FF492
:102EF000000C8B4224BF5B1A40EA0C00B3EB510F6D
:102F000024BFA3EB510340EA5C00B3EB910F24BF55
:102F1000A3EB910340EA9C00B3EBD10F24BFA3EBDA
:102F2000D10340EADC001B0118BF5FEA1C1CE0D1A2
:102F3000FD2A3FF650AF8B4240EBC25008BF20F055
:102F4000010070470CF0004C4CEA50207F32C2BFA9
:102F5000D2F1FF0340EAC250704740F400004FF046
:102F60000003013A37E792F0000F00F0004C02BF77
:102F7000400010F4000F013AF9D040EA0C0093F041
:102F8000000F01F0004C02BF490011F4000F013B9B
:102F9000F9D041EA0C0195E70CEAD15392EA0C0F03
:102FA00008D142027FF47DAF93EA0C0F7FF470AF3B
:102FB000084676E793EA0C0F04D14B023FF44CAF7E
:102FC00008466EE730F0004C18BF31F0004CCAD113
:102FD00030F000427FF45CAF31F000437FF43CAF4F
:102FE0005FE700BF42000ED2B2F1FE4F0BD34FF0AD
:102FF0009E03B3EB126209D44FEA002343F000436F
:1030000023FA02F070474FF00000704712F1610F91
:1030100001D1420202D14FF0FF3070474FF0000063
:10302000704700BF024B58221A604FF0FF307047C4
:10303000A4000020024B58221A604FF0FF30704766
:10304000A4000020024B58221A604FF0FF30704756
:10305000A4000020024B58221A600020704700BFD5
:10306000A4000020024B58221A604FF0FF30704736
:10307000A4000020024B58221A604FF0FF30704726
:10308000A4000020024B58221A604FF0FF30704716
:10309000A4000020044A05491368002B08BF0B4612
:1030A0001844106018467047A8000020380100201E
:1030B000024B58221A604FF0FF307047A4000020E6
:1030C000FEE700BF644B2DE9F0471A8892B09B7869
:1030D0000746ADF80C2038208DF80E3088465F4B3F
:1030E0005F4E1A889B78ADF810208DF8123000F0F2
:1030F00017FB002800F09E805A4801F00BF90023CE
:10310000594A96E803008DE8030003216E2000F081
:1031100034FF032203A9382000F07AFA322001F0AC
:103120003BF8032204A9382000F072FA642001F071
:1031300033F8062205A9382000F0AEFA9DF81650A3
:103140009DF8152007A82D029DF81730474945EA3C
:10315000023564221C0445EA1315BDF8183004F446
:1031600070245BBA55439BB22D0D1C43C8232A46DD
:103170005C43FDF763FB07A8240D01F0CBF83C4945
:10318000323C07A82246FDF759FB07A801F0C2F818
:10319000384B1A68AA4221D0374907A8FDF74EFBE1
:1031A00000231FFA87F907AA1FFA88FA96E8030096
:1031B0008DE803005146484600F0DFFE2A462E49BE
:1031C00007A8FDF73BFB4FF4FC6307AA96E8030052
:1031D0008DE803005146484600F0CFFEDFF89C9092
:1031E000D9F80020A24220D0254907A8FDF726FBE8
:1031F00008F10C08BFB2002307AA96E803008DE887
:1032000003004146384600F0B8FE22461C4907A894
:10321000FDF714FB4FF4FC6307AA96E803008DE862
:1032200003004146384600F0A8FE124BC9F80040A2
:103230001D600DE0134801F06DF84FF478430A4A21
:1032400096E803008DE8030003216E2000F095FE50
:1032500012B0BDE8F08700BF574600085A46000884
:1032600078000020044600080D4600080F460008BC
:103270001E460008AC00002044460008B0000020B4
:103280004E4600082D460008234B10B55C6844F4F8
:1032900080345C605C6844F0EE045C605C6844F41C
:1032A00000545C609C6914F0120F24D098629869F5
:1032B0008406FCD52020D86100205860586840F46E
:1032C00080605860586840EA02400A445860586874
:1032D00040F000705860586840F0EE005860586840
:1032E00040F4005058600C4B91420AD19A69920602
:1032F000FCD5202203E09C69E406D3D51022DA61D4
:1033000010BD986910F0140FFBD09869C006F5D471
:10331000586A01F8010BE7E700540040F7B50622B0
:103320006946F720FFF7B0FF9DF804203D499DF85E
:10333000033012019DF8056042EA03320B88B1F9AF
:103340000A7042EA16169DF80000C3EB12129DF8AF
:1033500001405B009DF80250C3EBD603B1F9026057
:103360005E4302FB02F3B1F904201B1353439B138A
:1033700003EBE6232C4E03EB83025B108032A3F5B4
:103380007A43121232609A10524356137E43B1F9B7
:1033900008705F437F1007EBE607CE88BF1407F580
:1033A00000477743214EFF1303D13760306803B0E5
:1033B000F0BDB1F90EC0D212B1F910E003FB0CF36D
:1033C0005B000EFB02332A0942EA0412B1F91440F1
:1033D00042EA0032B1F90C00000400EBA303B1F99A
:1033E0001600B1F9121002EB2332114B5A4302F1CD
:1033F000434303F5A003002BB5BFB3FBF7F35B001A
:103400005B00B3FBF7F3DA085243520B50439A08C0
:103410006243521302EB20320A4403EB221333605F
:10342000C4E700BFBC000020B8000020B4000020AA
:10343000CBF3FFFF164AD2F8E03043F01003C2F896
:10344000E030144B1A6822F440121A601A6822F015
:1034500040721A601A6822F040521A605A6822F4C8
:1034600080625A605A6822F480525A605A6822F484
:1034700080425A60DA6842F48012DA60DA6842F018
:103480008072DA60DA6842F08052DA60704700BF1A
:1034900000440258001002582DE9F041154E05462F
:1034A000345C24B1012C18D00020705509E0DFF8FD
:1034B00048800124D8F8103004FA00F73B4202D0CB
:1034C0000020BDE8F081142000F066FED8F810302E
:1034D0001F42F5D120467455F3E7074F84403A69FF
:1034E0002242EDD0142000F057FE3B691C42E7D089
:1034F000DAE700BFD60000200010025838B50A20D5
:10350000154CFFF7C9FF10B12378143323700C203A
:10351000FFF7C2FF10B12378143B237023788C2B64
:1035200015D98C2323700D4D237829788B420DD02B
:1035300000230A22642000F09FFD4FF61F030A2299
:103540002178642000F098FD23782B7038BD132B70
:10355000E9D81423E6E700BF6C000020E600002055
:10356000284BD3F8E02042F00202C3F8E020D3F861
:10357000E82042F40012C3F8E820A3F580431A685B
:1035800022F440321A601A6842F400321A601A6853
:1035900022F440221A601A6842F400221A605A6823
:1035A00022F440725A605A6842F440725A60DA68F3
:1035B00022F44022DA60DA6842F48022DA60DA68C3
:1035C00022F44032DA60DA6842F48032DA609A68D3
:1035D00022F470229A609A6842F470229A605A6AC1
:1035E00022F0FF025A625A6A42F044025A620022F2
:1035F000054B1A605A60054A1A611A6842F00102C6
:103600001A6070470044025800540040CC8DC1102D
:103610001E4BF0B500241E4F5C605E6846EA024611
:103620005E605E6846F000765E605D6845EA400573
:103630005D605868174D40F4005058602046904235
:1036400005DB124B9A699206FCD5202216E0002673
:103650000F4C2F60D3F818C01CF0120F05D006B124
:103660002C600C5C01309C62E9E7D3F818C01CF0B8
:10367000100F05D006B12C60044B1022DA6104E073
:10368000013C4FF00106E5D12C60F0BD0054004034
:1036900040420F00E80000201E4BF0B500241E4FF2
:1036A0005C605E6846F480665E605E6846EA02467C
:1036B0005E605E6846F000765E605D6845EA4005E3
:1036C0005D605868154D40F40050586020469042A7
:1036D00005DB104B9A699206FCD520220DE00026EE
:1036E0000D4C2F60D3F818C01CF0140F07D006B192
:1036F0002C609C69E40608D51022DA6104E0013CE4
:103700004FF00106EED12C60F0BD5C6A0C54013024
:10371000DDE700BF0054004040420F00E8000020F9
:103720001E4B4FF44C7210B5DA6100225A60596892
:1037300059605C6844F000745C60596841EA40017B
:1037400017485960596841F400515960154908609B
:103750009C6914F0700F09D002B108609A6912F0E8
:10376000100209D030220020DA6104E001384FF065
:103770000102EDD1086010BD094B08480B60846957
:10378000A40604D53AB92023C3610120F3E7013B25
:103790004FF00102F3D10B60F5E700BF0054004089
:1037A00040420F00E80000200E4A0F49D2F8E030F6
:1037B00043F01003C2F8E0300B6823F00C0343F031
:1037C00004030B60D2F8E03043F00203C2F8E030AB
:1037D000A2F58042136823F00C0343F00403136046
:1037E000704700BF00440258001002582DE9F04114
:1037F0008AB00D4604461F4FFFF790FD1E49024652
:10380000064602A8A4B2FDF719F8DFF87080ADB241
:1038100002AA40F2FF7397E803008DE803002946EF
:10382000204600F0AAFBD8F80020B2421DD0124971
:1038300002A8FDF703F8002302AA97E803008DE829
:1038400003002946204600F098FB32460A4902A8A8
:10385000FCF7F4FF40F2FF7302AA97E803008DE83B
:1038600003002946204600F088FBC8F800600AB033
:10387000BDE8F08170000020265B0008EC0000200D
:1038800038B50A4D0A4C2B6822689B1AB3F57A7F2B
:103890000AD3084A03215369084683F0020353619F
:1038A00000F046F92B68236038BD00BF0C010020F2
:1038B000F00000200010025883B5002400F056F8F4
:1038C00000F03AFC264D00F04BFC4FF4165000F08F
:1038D000CDFCA046FFF744FE274600F095F8214EA8
:1038E00000F076F9FFF760FFFFF7A4FD00F03EFA65
:1038F000A023802221462046009400F08CFA1A482A
:1039000000F008FD2B681B1BB3F5FA7F08D3736921
:1039100023F002037361736943F0020373612C683F
:103920002B68A3EB0803312B09D900F023FD00F02D
:1039300039FDFFF7E3FD00F071FCD5F800802B683E
:10394000DB1BB3F5FA6F08D30F210320FFF7BAFB97
:103950008C210320FFF74AFF2F68FFF791FFD1E783
:103960000C01002000040258305B0008234B1A6849
:1039700042F480321A601A689103FCD51A68042157
:1039800022F080721A601E4A116042229A621D4A19
:103990001A63DA6A42F00C02DA62DA6A42F48032BE
:1039A000DA62DA6A42F40032DA62DA6A42F48022D7
:1039B000DA621A6842F080721A60104B1A6892013B
:1039C000FCD548229A61DA6942F04002DA61DA698C
:1039D00042F48062DA611A6A42F040021A621A699D
:1039E00022F007021A611A6942F003021A61034ABF
:1039F000136903F03803182BFAD1704700440258BA
:103A0000002000529003010110B51E4C05201E4AF3
:103A1000D4F8F43043F40033C4F8F430136843F4BA
:103A20008073136000F0C2FB236F43F00103236730
:103A300042F21073226F910701D4013BFAD1236F38
:103A4000CA2223F440732367236F43F480732367F0
:103A5000236F43F4004323670C4B5A6253225A628C
:103A6000DA6842F08002DA60DA685206FCD5084A69
:103A70001A61DA6822F08002DA60FE225A62642259
:103A80005A6210BD004402580048025800400058D5
:103A9000FF007F00144ACA2330B553625323536298
:103AA000D36843F08003D360D3685B06FCD50A2457
:103AB000B1FBF4F504FB1513B0FBF4F1DBB204FB2E
:103AC00011001B02C0B243EA053343EA015343EA43
:103AD00000431360D36823F08003D360FE23536256
:103AE0006423536230BD00BF004000580F4B1B6879
:103AF00030B5C3F30154C3F3034504EB840405EB71
:103B000044040470C3F30230C3F3032400EB8000C9
:103B100004EB40000870C3F3021103F00F0301EB44
:103B2000810103EB4103137030BD00BF004000581A
:103B30002DE9F04F204F89B0DFF880800446DFF890
:103B400080903A460D46414648464FF0000AFFF73E
:103B5000CDFF10221B4E51460DEB0200A4B2ADB2B8
:103B6000DFF864B0CDF80CA0FCF7FAFD53465A46D6
:103B700096E803008DE803002946204600F0FDF991
:103B800099F8002098F8003003A8397800910F497F
:103B9000FCF754FE4FF6205303AA96E803008DE885
:103BA00003002946204600F0E8F903A95846FCF72F
:103BB00065FE09B0BDE8F08FF6000020F50000209A
:103BC000F400002078000020F7000020455B00088A
:103BD000214BD3F8E02042F00102C3F8E020D3F8F3
:103BE000F02042F48052C3F8F020A3F588431A680D
:103BF00022F47C421A601A6842F428421A609A68D9
:103C000042F47C429A601A6AC2F313021A621A6A78
:103C100042F0AA4242F4A0021A6200220F4B1A603C
:103C20009A60DA609A6842F080529A609A6842F02C
:103C300007029A601A6842F480521A60DA6842F009
:103C40008062DA60DA6842F48002DA60DA6842F0B0
:103C50000042DA60704700BF004402580030014063
:103C60000B4B1A6842F001021A601A6842F40072A3
:103C70001A605A699107FCD583F820005A69D2046A
:103C8000FCD51A68002022F001021A60704700BFBC
:103C9000003001400F4A1048D2F8E03043F00103F1
:103CA000C2F8E0300D4B1968014019601A6842F4FF
:103CB000A02242F010021A609A6802409A609A6844
:103CC00042F4702242F030029A609A6942F4007223
:103CD0009A61704700440258CFFFF0FF000002587D
:103CE000024A936943F0040393617047000002584D
:103CF000024A936943F4802393617047000002589D
:103D0000024A936943F4807393617047000002583C
:103D1000024A936943F08073936170470000025830
:103D200010B50A4C0A20A36943F40073A36100F0A4
:103D300033FAA3690A2043F00073A36100F02CFA60
:103D4000A36943F40073A36110BD00BF00000258D3
:103D500008B5FFF7CDFFBDE80840FFF781BF08B504
:103D6000FFF7BEFFBDE80840FFF77ABF08B5FFF7D1
:103D700091FFFFF7D5FF0A2000F00EFA0A20FFF7A7
:103D8000C7FF00F009FA1120FFF7E2FF782000F0EA
:103D900003FA3A20FFF7DCFF0520FFF7E0FF3620AB
:103DA000FFF7D6FF1420FFF7DAFF2920FFF7D0FF37
:103DB0006420BDE8084000F0EFB9F8B505462A20B8
:103DC00017461E46EDB20C46FFF7C2FF0020FFF774
:103DD000C6FF2846FFF7C3FF0020FFF7C0FF781E8D
:103DE000E4B22844C0B2FFF7BAFF2B20FFF7B0FFC0
:103DF0000020FFF7B4FF2046FFF7B1FF0020FFF7D8
:103E0000AEFF701E2044C0B2FFF7A9FF2C20BDE812
:103E1000F840FFF79DBF7F282DE9F84306460D4681
:103E200017461C46BDF8208057D89F2955D8002A30
:103E300053D0002B51D08318F6B2EDB2802B01EB9A
:103E400004034FEA1829C8BFC0F180005FFA88F860
:103E5000C8BF87B2A02BC4BFC1F1A004A4B2FFF7B2
:103E600057FF2A20FFF774FF0020FFF778FF304646
:103E7000013EFFF774FF0020FFF771FFF0190026E5
:103E8000C0B2FFF76CFF2B20FFF762FF0020FFF7A7
:103E900066FF2846013DFFF762FF0020FFF75FFF46
:103EA0002819C0B2FFF75BFF2C20FFF751FFFFF787
:103EB00017FF002501354846FFF7D2FE40462DB2D8
:103EC000FFF7CEFEBD42F5DB013636B2A642F0DB8F
:103ED000FFF716FF0120BDE8F8830020FBE77F28ED
:103EE00010B514460FD89F290DD801231A46FFF7A5
:103EF00064FFFFF7F5FE200AFFF7B2FEE0B2FFF71E
:103F0000AFFE012010BD0020FCE72DE9F74F14465D
:103F1000994605460E4622060D9B9DF831800CD42D
:103F2000203C08FB04F403EB440A00274FF0010B8C
:103F3000474506DB03B0BDE8F08FBF2CF5D9C03C88
:103F4000EFE7F1193AF81730002489B29DF83020D4
:103F5000A24201DC0137EBE7C4F10F020BFA02F2D7
:103F6000134208D028194A46019380B20091FFF706
:103F7000B6FFDDE900130134E8E72DE9F743144605
:103F800007460D469946013C9DF82880FFF7C0FE84
:103F90003E4614F8012F22B903B0BDE8F043FFF705
:103FA000AFBE0AAB8DF8288093E803004B468DE83E
:103FB000030030462946FFF7A8FF06EB080296B239
:103FC00018FA82F2802AE4DD9DF829100D44ADB282
:103FD000DEE72DE9F04F161A9A4687B08046002E8C
:103FE000AAEB01070D469146B8BF7642BDF840B036
:103FF00033B2B6B202938242CCBF01234FF0FF33FB
:10400000002F0093B8BF7F42BFB27B42F41B1BB2AC
:1040100024B203938A45CCBF01234FF0FF330193B1
:10402000FFF776FE1FFA88F35A46A9B218460493A2
:104030000591FFF754FFC845DDE9043101D155452D
:1040400015D0A0B2DDF80CC0420012B2944505DCD8
:10405000C01B04B2009803440FFA83F8029B9342FA
:10406000E0DB019B3444194424B20DB2DAE707B017
:10407000BDE8F04FFFF744BE2DE9F04F550087B083
:1040800014461E46C5F103054FF0000B87B22DB252
:104090001FFA81F80FFA8BF31FFA8BFAA3420393EE
:1040A00002DD07B0BDE8F08F18FA84F3A7EB0A0031
:1040B00007EB0A021FFA84F91BB2009600B212B293
:1040C000194604900592FFF784FFA8EB0903059AAF
:1040D00004981BB200961946FFF77BFF08EB0A0312
:1040E000A7EB090007EB09021BB2009600B212B25F
:1040F000194604900592FFF76CFFA8EB0A03059A96
:1041000004981BB200961946FFF763FF002DABB26F
:1041100006DA9D1D05EB8A052DB20BF1010BB9E7FF
:10412000039A03F10A05141B05EB840509F1FF341A
:104130002DB224B2F1E7000008B5FCF75DF9074B9A
:104140004FF47A721B68B3FBF2F34FF0E022013BAD
:104150005361002393610723136108BD0000002011
:10416000074AD2F8FC3043F08073C2F8FC300022DA
:10417000044B5A601A6842F001021A60704700BF8F
:1041800000ED00E0001000E0024A13680133136004
:10419000704700BF0C010020034A116813685B1AC6
:1041A0008342FBD3704700BF0C010020064B074A37
:1041B0001B680749B3FBF2F310B543434C684A68E8
:1041C000121B9A42FBD310BD0000002040420F009A
:1041D000001000E00E490B78A3B90E4B1A6842F4A8
:1041E00080521A601A689004FCD5D3F8DC2042F0A3
:1041F0004002C3F8DC20084A136843F0040313604C
:1042000001230B70044B5A68D207FCD5986870479D
:1042100010010020004402580018024800B50E208A
:104220008BB0FFF739F9D0B132210023462208467E
:1042300000930F23FFF7EFFDFFF7CCFF094902467C
:1042400002A8FCF7FBFA084B02AA93E803004FF41C
:1042500078438DE8030032210846FFF78EFE0BB04D
:104260005DF804FB545B000878000020214BD3F874
:10427000E02042F00802C3F8E020D3F8E82042F43E
:104280008022C3F8E820A3F560531A6822F4402284
:104290001A601A6842F400221A601A6822F4403246
:1042A0001A601A6842F400321A605A6822F44072A6
:1042B0005A609A6842F420229A605A6A42F0770261
:1042C0005A6200220C4B1A605A609A6082000B48B6
:1042D000B0FBF2F0D8601A6842F020021A601A6847
:1042E00042F00D021A602022054B83F8272380221A
:1042F0005A60704700440258004800400084D717B5
:1043000000E100E0024BDA691206FCD598627047C2
:1043100000480040411E08B511F8010F00B908BD62
:10432000FFF7F0FFF8E700000E4BDA69920618D5A8
:104330005A6A01210C4BD2B20C4819700D2A0C4B51
:1043400002D019781E2905D91A780021D2B28154D9
:10435000197070471978C9B242541A780132D2B232
:104360001A7070470048004011010020120100201F
:104370003201002010B5074C237853B10648FFF7EF
:10438000C9FF0648FFF7C6FF0548FFF7C3FF002334
:10439000237010BD11010020585B0008120100209D
:1043A000775B0008F0B5194F89B0022218493846EA
:1043B000FCF7C2FA044630BB16493846FCF7FCFA53
:1043C00015492046FCF7F8FA134905462046FCF744
:1043D000F3FA06462846FCF797F905463046FCF7FF
:1043E00093F90646C1B2E8B2FFF754FB33462A46BA
:1043F0000A496846FCF722FA6846FFF78BFF01205E
:104400003C7009B0F0BD0020FBE700BF12010020A6
:104410005E5B00085C5B0008615B0008635B000892
:10442000DFF834D0002103E00C4B5B5843500431DB
:104430000B480C4B42189A42F6D30B4A02E0002379
:1044400042F8043B094B9A42F9D3FBF76DFFFCF7A6
:1044500063F9FFF731FA7047000002204C5C000856
:104460000000002080000020800000203401002097
:10447000FEE70000F8B500BFF8BC08BC9E467047D8
:0C448000F8B500BFF8BC08BC9E467047B1
:10448C0000000000010203040102030406070809EE
:10449C000C00002000202020202020202020282874
:1044AC0028282820202020202020202020202020E8
:1044BC002020202020881010101010101010101028
:1044CC001010101010040404040404040404041058
:1044DC0010101010101041414141414101010101E6
:1044EC0001010101010101010101010101010101B0
:1044FC0010101010101042424242424202020202BC
:10450C00020202020202020202020202020202027F
:10451C00101010102000000000000000000000002F
:10452C00000000000000000000000000000000007F
:10453C00000000000000000000000000000000006F
:10454C00000000000000000000000000000000005F
:10455C00000000000000000000000000000000004F
:10456C00000000000000000000000000000000003F
:10457C00000000000000000000000000000000002F
:10458C00000000000000000000000000000000001F
:10459C00000000000000000000000000000000000F
:1045AC0000000000000000000000000000000000FF
:1045BC0000000000000000000000000000000000EF
:1045CC0000000000000000000000000000000000DF
:1045DC0000000000000000000000000000000000CF
:1045EC0000000000000000000000000000000000BF
:1045FC00000000000000000041485420454E0A0D08
:10460C0000580041485432305F483A20256C750AF6
:10461C000D0041485432305F543A20256C750A0D18
:10462C0000414854204E4F5420464F554E442028AC
:10463C0030783338290A0D00483A20256C7520252E
:10464C002500543A20256C752A4300BE0800AC3373
:10465C00000000000000000000000000000000004E
:10466C00000000000000000000000000000000003E
:10467C000000000000000000000C000C000C000CFE
:10468C00000C000C000C000C000C000C000C0000CA
:10469C00000C000C0000000000000000001B001BC0
:1046AC00001B001B001B00000000000000000000AD
:1046BC0000000000000000000000000000000000EE
:1046CC008019801980198019C07FC07F8019003330
:1046DC00C07FC07F00330033003300330000000084
:1046EC0000000000001E003F807580650074003CD7
:1046FC00001E00078005806580658075003F001EE8
:10470C000004000400000000007000D840D8C0D89D
:10471C0080D900730006000C801BC036C066C046F2
:10472C00C00680030000000000000000001E003FD7
:10473C00003300330033001E000CC03CC0668063A5
:10474C0080618063C03E801C0000000000000000FF
:10475C00000C000C000C000C000C00000000000011
:10476C00000000000000000000000000000000003D
:10477C000000800000010003000600060004000C8D
:10478C00000C000C000C000C000C000400060006D1
:10479C00000300018000002000100018000C000C29
:1047AC0000040006000600060006000600060004D1
:1047BC00000C000C0018001000200000000C002D54
:1047CC00003F001E0033000000000000000000004D
:1047DC0000000000000000000000000000000000CD
:1047EC0000000000000C000C000C000CC0FFC0FF0F
:1047FC00000C000C000C000C00000000000000007D
:10480C00000000000000000000000000000000009C
:10481C00000000000000000000000000000C000C74
:10482C00000400040008000000000000000000006C
:10483C000000000000000000001E001E0000000030
:10484C00000000000000000000000000000000005C
:10485C00000000000000000000000000000000004C
:10486C0000000000000C000C000000000000000024
:10487C000003000300030006000600060006000CFF
:10488C00000C000C000C00180018001800000000B0
:10489C0000000000001E003F0033806180618061D9
:1048AC00806D806D8061806180610033003F001EEF
:1048BC0000000000000000000006000E001E003684
:1048CC00002600060006000600060006000600068C
:1048DC00000600060000000000000000001E003F63
:1048EC00807380618061800100030006000C001859
:1048FC0000300060807F807F00000000000000001E
:10490C00001C003E006300630003000E000E000359
:10491C008001800180618073003F001E0000000058
:10492C00000000000006000E000E001E001E001607
:10493C00003600360066807F807F00060006000689
:10494C000000000000000000007F007F006000609D
:10495C000060006E007F8063800180018061807345
:10496C00003F001E0000000000000000001E003F81
:10497C00803380610060006E007F80738061806195
:10498C0080618033003F001E00000000000000002A
:10499C00807F807F80010003000300060006000C6E
:1049AC00000C000C00080018001800180000000093
:1049BC0000000000001E003F8063806180610021C8
:1049CC00001E003F8061806180618061003F001E9D
:1049DC000000000000000000001E003F007380611A
:1049EC00806180618073803F801D800180610073D5
:1049FC00003F001E0000000000000000000000004E
:104A0C0000000000000C000C000000000000000082
:104A1C0000000000000C000C000000000000000072
:104A2C0000000000000000000000000C000C000062
:104A3C000000000000000000000C000C000400044A
:104A4C000008000000000000000080008003000E41
:104A5C00003800600038000E800380000000000069
:104A6C00000000000000000000000000000000003A
:104A7C00807F807F00000000807F807F000000002E
:104A8C00000000000000000000000000000000001A
:104A9C00000000400070001C000780010007001C93
:104AAC00007000400000000000000000000000004A
:104ABC00001F803FC071C060C000C00180030007B0
:104ACC00000E000C000C0000000C000C000000009C
:104ADC0000000000001E003F803180718063806FF9
:104AEC00806D806D806F806700600032003E001C1E
:104AFC000000000000000000000E000E001B001B58
:104B0C00001B001B80318031803F803F8031C060B2
:104B1C00C060C0600000000000000000007C007E4F
:104B2C000063006300630063007E007E00638061AD
:104B3C0080618063007F007E0000000000000000A8
:104B4C00001E003F803180610060006000600060EA
:104B5C000060006080618031003F001E000000009A
:104B6C0000000000007C007F006380638061806136
:104B7C00806180618061806100630063007E007CE5
:104B8C000000000000000000807F807F006000605B
:104B9C0000600060007F007F0060006000600060CB
:104BAC00807F807F0000000000000000807F807FFD
:104BBC000060006000600060007F007F00600060AB
:104BCC000060006000600060000000000000000059
:104BDC00001E003F803180610060006000608063D7
:104BEC008063806180618031803F001E0000000086
:104BFC000000000080618061806180618061806163
:104C0C00807F807F80618061806180618061806154
:104C1C000000000000000000003F003F000C000CF2
:104C2C00000C000C000C000C000C000C000C000C18
:104C3C00003F003F000000000000000080018001E8
:104C4C0080018001800180018001800180018061F0
:104C5C0080618073003F001E000000000000000017
:104C6C00C0608061006300660066006C0078007CA8
:104C7C0000660066006380618061C0600000000017
:104C8C0000000000807F807F00600060006000609A
:104C9C000060006000600060006000600060006008
:104CAC000000000000000000C071C071C07BC07A21
:104CBC00C06AC06AC06EC064C060C060C060C060C2
:104CCC00C060C060000000000000000080718071B6
:104CDC00807980798079806D806D806D806580674A
:104CEC008067806780638063000000000000000024
:104CFC00001E003F003380618061806180618061B3
:104D0C008061806180610033003F001E0000000064
:104D1C0000000000007E007F806380618061806104
:104D2C008063007F007E00600060006000600060B7
:104D3C000000000000000000001E003F00338061F6
:104D4C0080618061806180618061806580670033F3
:104D5C00803F401E0000000000000000007E007F2D
:104D6C008063806180618063007F007E00660063E9
:104D7C00006380618061C0600000000000000000E2
:104D8C00000E001F8031803100300038001E0007FB
:104D9C008003806180618031003F001E00000000B4
:104DAC0000000000C0FFC0FF000C000C000C000C49
:104DBC00000C000C000C000C000C000C000C000C87
:104DCC000000000000000000806180618061806153
:104DDC0080618061806180618061806180618073AD
:104DEC00003F001E0000000000000000C060C0601A
:104DFC00C060803180318031001B001B001B001B08
:104E0C00000E000E000E0004000000000000000068
:104E1C00C0C0C0C0C0C0C0C0C0C0C0CC804C804CE2
:104E2C00805E80528052807380618061000000003F
:104E3C0000000000C0C0806080610033003B001E99
:104E4C00000C000C001E001F003B80718061C0C074
:104E5C000000000000000000C0C0806180610033D1
:104E6C000033001E001E000C000C000C000C000C8B
:104E7C00000C000C0000000000000000803F803F90
:104E8C008001000300030006000C000C0018001841
:104E9C0000300060807F807F000000000000000F69
:104EAC00000F000C000C000C000C000C000C000C93
:104EBC00000C000C000C000C000C000C000C000F83
:104ECC00000F0000001800180018000C000C000C5B
:104EDC00000C000600060006000600030003000399
:104EEC00000000000000001E001E00060006000668
:104EFC000006000600060006000600060006000676
:104F0C00000600060006001E001E0000000C000C2F
:104F1C00001E00120033003380618061000000002D
:104F2C000000000000000000000000000000000075
:104F3C000000000000000000000000000000000065
:104F4C000000000000000000000000000000E0FF76
:104F5C000000000000380018000C000000000000E9
:104F6C000000000000000000000000000000000035
:104F7C000000000000000000000000000000000025
:104F8C00001F803F80618001801F803F80618063B3
:104F9C00807FC0380000000000000000006000604E
:104FAC0000600060006E007F8073806180618061B2
:104FBC0080618073007F006E000000000000000024
:104FCC000000000000000000001E003F80738061A4
:104FDC000060006080618073003F001E00000000D4
:104FEC00000000008001800180018001801D803F55
:104FFC00807380618061806180618073803F801DDF
:10500C000000000000000000000000000000000094
:10501C00001E003F00738061807F807F0060807184
:10502C00003F001E0000000000000000C007C00F81
:10503C00000C000C807F807F000C000C000C000C1E
:10504C00000C000C000C000C000000000000000024
:10505C00000000000000801D803F80738061806133
:10506C00806180618073803F801D80018063007F40
:10507C00003E00000060006000600060006F807FF8
:10508C0080718061806180618061806180618061FC
:10509C0000000000000000000006000600000000F8
:1050AC00003E003E00060006000600060006000654
:1050BC0000060006000000000000000600060000CC
:1050CC000000003E003E000600060006000600063A
:1050DC0000060006000600060046007E003C0000AC
:1050EC000060006000600060806100630066006C1E
:1050FC00007C0076006300638061C06000000000EB
:10510C0000000000003E003E0006000600060006FF
:10511C000006000600060006000600060006000653
:10512C000000000000000000000000000000000073
:10513C0080DDC0FFC0CEC0CCC0CCC0CCC0CCC0CCFD
:10514C00C0CCC0CC0000000000000000000000003B
:10515C0000000000006F807F807180618061806141
:10516C0080618061806180610000000000000000AF
:10517C000000000000000000001E003F80738061F2
:10518C008061806180618073003F001E0000000020
:10519C0000000000000000000000006E007F807323
:1051AC0080618061806180618073007F006E00602F
:1051BC000060006000600000000000000000801D26
:1051CC00803F807380618061806180618073803FEB
:1051DC00801D800180018001800100000000000022
:1051EC00000000000067803F0039003000300030C4
:1051FC0000300030003000300000000000000000E3
:10520C000000000000000000001E803F8061006074
:10521C00007F803F80018061007F001E0000000045
:10522C00000000000000000800180018007F007F3C
:10523C00001800180018001800180018801F800FA4
:10524C000000000000000000000000000000000052
:10525C008061806180618061806180618061806338
:10526C00807F803D00000000000000000000000076
:10527C0000000000C060803180318031001B001BB9
:10528C00001B000E000E00060000000000000000D5
:10529C00000000000000000080DD80DD80DD005596
:1052AC000055005500770077002200220000000016
:1052BC0000000000000000000000000080610033CE
:1052CC000033001E000C000C001E00330033806104
:1052DC0000000000000000000000000000008061E1
:1052EC008061803100330033001B001B001B000E5B
:1052FC00000E000E001C007C00700000000000007E
:10530C0000000000C07FC07F800100030006000C7D
:10531C0000180030C07FC07F000000000000800338
:10532C00800700060006000600060006000E001CA2
:10533C00001C000E00060006000600060006800792
:10534C0080030006000600060006000600060006A4
:10535C000006000600060006000600060006000611
:10536C000006000600060038003C000C000C000C87
:10537C00000C000C000E00070007000E000C000CC7
:10538C00000C000C000C003C003800000000000079
:10539C0000000000000000008038807F0047000003
:1053AC0000000000000000000000000000000000F1
:1053BC0000000000000000000000000000000000E1
:1053CC000000001000100010001000100010000071
:1053DC000010000000000028002800280000000039
:1053EC000000000000000000000000240024007CED
:1053FC0000240048007C00480048000000000038F1
:10540C0000540050003800140054005400380010B0
:10541C0000000020005400580030002800540014F4
:10542C0000080000000000100028002800100034C4
:10543C00004800480034000000000010001000106C
:10544C000000000000000000000000000000000848
:10545C000010002000200020002000200020001060
:10546C0000080020001000080008000800080008D0
:10547C000008001000200010003800100028000068
:10548C000000000000000000000000000000001000
:10549C000010007C00100010000000000000000054
:1054AC0000000000000000000000000000100010D0
:1054BC000010000000000000000000000038000098
:1054CC0000000000000000000000000000000000D0
:1054DC000000000000100000000000080008001090
:1054EC000010001000100020002000000000003808
:1054FC0000440044005400440044004400380000C0
:10550C0000000010003000500010001000100010BF
:10551C0000100000000000380044004400040008A3
:10552C0000100020007C0000000000380044000443
:10553C0000180004000400440038000000000008BB
:10554C000018002800280048007C00080008000013
:10555C000000007C0040004000780004000400447F
:10556C00003800000000003800440040007800447F
:10557C0000440044003800000000007C00040008D7
:10558C000010001000200020002000000000003857
:10559C00004400440038004400440044003800003B
:1055AC0000000038004400440044003C0004004467
:1055BC000038000000000000000000100000000097
:1055CC0000000000001000000000000000000000BF
:1055DC00001000000000000000100010001000007F
:1055EC000000000C003000400030000C00000000F7
:1055FC000000000000000000007C0000007C0000A7
:10560C000000000000000000000000600018000412
:10561C000018006000000000000000380044000486
:10562C0000080010001000000010000000000038FE
:10563C000044004C0054005C004000400038000066
:10564C00000000100028002800280028007C0044DE
:10565C00004400000000007800440044007800443E
:10566C000044004400780000000000380044004072
:10567C000040004000400044003800000000007072
:10568C0000480044004400440044004800700000FE
:10569C000000007C00400040007C004000400040C6
:1056AC00007C00000000007C0040004000780040BE
:1056BC000040004000400000000000380044004062
:1056CC000040005C0044004400380000000000442E
:1056DC0000440044007C00440044004400440000AA
:1056EC000000003800100010001000100010001016
:1056FC000038000000000004000400040004000452
:10570C000004004400380000000000440048005031
:10571C0000600050004800480044000000000040B9
:10572C00004000400040004000400040007C000071
:10573C0000000044006C006C005400440044004421
:10574C000044000000000044006400640054005455
:10575C00004C004C004400000000003800440044A1
:10576C00004400440044004400380000000000786D
:10577C000044004400440078004000400040000019
:10578C00000000380044004400440044004400542D
:10579C000038000400000078004400440044007805
:1057AC00004800480044000000000038004400405D
:1057BC000030000800040044003800000000007CA9
:1057CC00001000100010001000100010001000005D
:1057DC0000000044004400440044004400440044E1
:1057EC000038000000000044004400440028002859
:1057FC000028001000100000000000440044005479
:10580C0000540054006C00280028000000000044E4
:10581C000028002800100010002800280044000078
:10582C000000004400440028002800100010001064
:10583C00001000000000007C0004000800100010A4
:10584C0000200040007C0000000000180010001038
:10585C0000100010001000100010001000180020A4
:10586C0000200010001000100010000800080000BC
:10587C00000000300010001000100010001000108C
:10588C000010001000300010002800280044000018
:10589C0000000000000000000000000000000000FC
:1058AC0000000000000000000000000000FE0020CE
:1058BC0000100000000000000000000000000000CC
:1058CC0000000000000000380044003C0044004C84
:1058DC000034000000000040004000580064004408
:1058EC000044006400580000000000000000003874
:1058FC000044004000400044003800000000000458
:10590C0000040034004C00440044004C00340000FF
:10591C0000000000000000380044007C00400044FF
:10592C00003800000000000C0010007C001000107B
:10593C0000100010001000000000000000000034F7
:10594C00004C00440044004C00340004007800403B
:10595C00004000580064004400440044004400002F
:10596C00000000100000007000100010001000106B
:10597C00001000000000001000000070001000106B
:10598C00001000100010001000E000400040004823
:10599C0000500060005000480044000000000070FF
:1059AC00001000100010001000100010001000007B
:1059BC000000000000000078005400540054005413
:1059CC000054000000000000000000580064004477
:1059DC0000440044004400000000000000000038B7
:1059EC000044004400440044003800000000000063
:1059FC00000000580064004400440064005800405B
:105A0C000040000000000034004C00440044004CF6
:105A1C000034000400040000000000580064004042
:105A2C000040004000400000000000000000003872
:105A3C000044003000080044003800000000002042
:105A4C00002000780020002000200020001800001A
:105A5C000000000000000044004400440044004CDE
:105A6C000034000000000000000000440044002846
:105A7C000028002800100000000000000000005466
:105A8C0000540054006C00280028000000000000A6
:105A9C000000004400280010001000280044000002
:105AAC000000000000000044004400280028001002
:105ABC0000100010006000000000007C00080010C6
:105ACC0000200040007C00000000001800100010B6
