:020000040800F2
:1000000000000220AD3C0008FD3C0008FD3C00085B
:10001000FD3C0008FD3C0008FD3C0008000000001D
:10002000000000000000000000000000FD3C00088F
:10003000FD3C000800000000FD3C0008ED39000810
:10004000FD3C0008FD3C0008FD3C0008FD3C0008AC
:10005000FD3C0008FD3C0008FD3C0008FD3C00089C
:10006000FD3C0008FD3C0008FD3C0008FD3C00088C
:10007000FD3C0008FD3C0008FD3C0008FD3C00087C
:10008000FD3C0008FD3C0008FD3C0008FD3C00086C
:10009000FD3C0008FD3C0008FD3C0008FD3C00085C
:1000A000FD3C0008FD3C0008FD3C0008FD3C00084C
:1000B000FD3C0008FD3C0008FD3C0008FD3C00083C
:1000C000FD3C0008FD3C0008FD3C0008FD3C00082C
:1000D000FD3C0008FD3C0008FD3C0008913B000889
:1000E000FD3C0008FD3C000800000000FD3C00084D
:1000F000FD3C0008FD3C0008FD3C0008FD3C0008FC
:10010000FD3C0008FD3C0008FD3C0008FD3C0008EB
:10011000FD3C0008FD3C0008FD3C0008FD3C0008DB
:10012000FD3C0008FD3C0008FD3C0008FD3C0008CB
:10013000FD3C0008FD3C0008FD3C0008FD3C0008BB
:10014000FD3C0008FD3C000800000000000000002D
:10015000FD3C0008FD3C0008FD3C0008FD3C00089B
:10016000FD3C0008FD3C0008FD3C0008FD3C00088B
:10017000FD3C0008FD3C0008FD3C000800000000BC
:10018000FD3C0008FD3C0008FD3C0008FD3C00086B
:10019000FD3C0008FD3C0008FD3C0008FD3C00085B
:1001A000FD3C0008FD3C0008FD3C0008FD3C00084B
:1001B000FD3C0008FD3C0008FD3C0008FD3C00083B
:1001C000FD3C0008FD3C0008FD3C0008FD3C00082B
:1001D000FD3C0008FD3C0008FD3C0008FD3C00081B
:1001E000FD3C0008FD3C0008FD3C0008FD3C00080B
:1001F000FD3C0008FD3C0008FD3C0008FD3C0008FB
:10020000FD3C0008FD3C0008FD3C0008FD3C0008EA
:10021000FD3C0008FD3C0008FD3C0008FD3C0008DA
:10022000FD3C0008FD3C0008FD3C0008000000000B
:10023000FD3C0008FD3C0008FD3C0008FD3C0008BA
:10024000FD3C0008FD3C0008FD3C0008FD3C0008AA
:10025000FD3C0008FD3C0008FD3C0008FD3C00089A
:10026000FD3C0008FD3C0008FD3C0008FD3C00088A
:10027000FD3C0008FD3C0008FD3C0008FD3C00087A
:10028000FD3C0008FD3C0008FD3C000800000000AB
:08029000FD3C0008FD3C0008E4
:1002A0000348044B834202D0034B03B11847704705
:1002B0008000002080000020000000000548064962
:1002C0000B1AD90F01EBA301491002D0034B03B164
:1002D00018477047800000208000002000000000C8
:1002E00010B5064C237843B9FFF7DAFF044B13B17E
:1002F0000448AFF300800123237010BD800000206C
:1003000000000000003D000808B5044B1BB1044983
:100310000448AFF30080BDE80840CFE700000000CC
:1003200084000020003D000880B400AF2F4BD3F8BC
:1003300088302E4A43F47003C2F888302B4B1B6977
:100340002A4A43F004031361294B1B68284A43F0EF
:1003500001031360264B00221A61254B1A682449B9
:10036000244B13400B60224B00229A61204B002249
:10037000DA611F4B00221A621D4B00229A621C4B4D
:100380000022DA621A4B00221A63194B00225A63C8
:10039000174B00229A63164B0022DA63144B00229B
:1003A0001A64134B00225A64114B1B68104A23F441
:1003B000802313600E4B00221A660F4B5B6A0E4AB5
:1003C00043F4804353620D4B1A680D4B1340B3F155
:1003D000005F02D20B4B01221A60044B4FF0006207
:1003E0009A6000BFBD465DF8047B704700ED00E0F9
:1003F000004402587FEDF6EAC00000580010005C8F
:100400000000FFFF0881005180B48BB000AFA74B04
:100410001B6903F03803182B00F2228101A252F865
:1004200023F000BF89040008610600086106000887
:100430006106000861060008610600086106000800
:10044000610600089D0400086106000861060008B6
:1004500061060008610600086106000861060008E0
:1004600061060008A3040008610600086106000890
:1004700061060008610600086106000861060008C0
:1004800061060008A9040008884B1B68DB0803F01C
:100490000303874A22FA03F37B62E4E0854B7B6225
:1004A000E1E0854B7B62DEE0804B9B6A03F0030357
:1004B000FB617E4B9B6A1B0903F03F03BB617B4BD7
:1004C000DB6A03F001037B61784B5B6BDB08C3F3F2
:1004D0000C037A6902FB03F307EE903AF8EE677AB1
:1004E000C7ED047ABB69002B00F0B780FB69022BD3
:1004F00059D0FB69022B78D8FB69002B03D0FB692C
:10050000012B2ED071E0694B1B68DB0803F003035D
:10051000674A22FA03F3FB60FB6807EE903AF8EEB5
:10052000676ABB6907EE903AF8EE677A86EEA77ABB
:100530005E4B1B6BC3F3080307EE903AF8EE676A55
:1005400097ED046ADFED5D5AC6EE257A76EEA77A5E
:10055000F7EE006A77EEA67A67EE277AC7ED087A9B
:1005600065E0BB6907EE903AF8EE677ADFED546A12
:1005700086EEA77A4D4B1B6BC3F3080307EE903A48
:10058000F8EE676A97ED046ADFED4C5AC6EE257AFD
:1005900076EEA77AF7EE006A77EEA67A67EE277A0C
:1005A000C7ED087A43E0BB6907EE903AF8EE677A48
:1005B000DFED446A86EEA77A3C4B1B6BC3F308035E
:1005C00007EE903AF8EE676A97ED046ADFED3B5A62
:1005D000C6EE257A76EEA77AF7EE006A77EEA67A6F
:1005E00067EE277AC7ED087A21E0BB6907EE903AFB
:1005F000F8EE677ADFED326A86EEA77A2B4B1B6B3B
:10060000C3F3080307EE903AF8EE676A97ED046AC1
:10061000DFED2A5AC6EE257A76EEA77AF7EE006A63
:1006200077EEA67A67EE277AC7ED087A00BF1F4BF0
:100630001B6B5B0A03F07F030133BB60BB6807EEF3
:10064000903AB8EE677AD7ED086AC6EE877AFCEE84
:10065000E77A17EE903A7B6205E000237B6202E0C6
:10066000144B7B6200BF114B9B691B0A03F00F0305
:10067000154AD35C7B607A6A7B6822FA03F37B625B
:100680000A4B9B6903F00F030F4AD35C03F01F036F
:100690007A6A22FA03F30D4A13600D4A7B6A1360EB
:1006A00000BF2C37BD465DF8047B704700440258FC
:1006B0000090D00300093D0000127A0000000046BF
:1006C0000024744A0024F44A183D00080400002065
:1006D000000000200A22002100F0A0BA0A23002214
:1006E00000F07CBA70B50D4E0D4D761BB61006D0DD
:1006F000002455F8043B01349847A642F9D1094E2D
:10070000094D761B03F0FCFAB61006D0002455F80C
:10071000043B01349847A642F9D170BD4855000802
:10072000485500084C55000848550008931E222BD8
:1007300010B50C460CD80A2A03D000F083FA2046E4
:1007400010BD0028F9DA2D2301F8013B4042F4E7FF
:100750000020087010BD00BF931E222B10B50C4660
:100760000CD80A2A03D000F06DFA204610BD0028EC
:10077000F9DA2D2301F8013B4042F4E7002008702C
:1007800010BD00BF830730B548D0541E002A3FD0AB
:10079000CAB2034601E0013C3AD303F8012B9D079E
:1007A000F9D1032C2DD9CDB245EA05250F2C45EA08
:1007B000054536D9A4F1100222F00F0C03F1200EEA
:1007C000E6444FEA121C03F1100242E9045542E9E3
:1007D000025510327245F8D10CF1010214F00C0FE1
:1007E00003EB021204F00F0C13D0ACF1040323F05E
:1007F00003030433134442F8045B9342FBD10CF02F
:1008000003042CB1CAB21C4403F8012B9C42FBD157
:1008100030BD64461346002CF4D1F9E70346144674
:10082000BFE71A46A446E0E70CB410B59CB01EAB77
:100830006FF00044CDE906140291084953F8042BE7
:10084000059102A90193049400F044FC029B00224C
:100850001A701CB0BDE8104002B070470802FFFFDC
:100860000EB410B59DB06FF000411FABCDE906018D
:100870000491094953F8042B0290084C086801932D
:1008800002A9059400F026FC029B00221A701DB0FC
:10089000BDE8104003B07047080000200802FFFFC9
:1008A00080EA0102844612F0030F4FD111F0030FCA
:1008B00032D14DF8044D11F0040F51F8043B0BD028
:1008C000A3F101329A4312F0803F04BF4CF8043B7D
:1008D00051F8043B16D100BF51F8044BA3F101328B
:1008E0009A4312F0803FA4F101320BD14CF8043B43
:1008F000A24312F0803F04BF51F8043B4CF8044B74
:10090000EAD023460CF8013B13F0FF0F4FEA3323E4
:10091000F8D15DF8044B704711F0010F06D011F8C3
:10092000012B0CF8012B002A08BF704711F0020FB1
:10093000BFD031F8022B12F0FF0F16BF2CF8022B9C
:100940008CF8002012F47F4FB3D1704711F8012BBF
:100950000CF8012B002AF9D1704700BFA2B330B5C3
:1009600040EA0104A40784460B462AD09CF8000004
:100970000C7884422FD1012A0DD0E64660B11EF8D2
:10098000010F11F8014F6FEA0E03A042134422D168
:100990001CEB0303F2D1002030BD0468194653F864
:1009A000045BA4F1013EAC4284462EEA040E00F141
:1009B00004000BD1043A84461946ECD01EF0803F67
:1009C000E9D1032AE9D8D1E7104670479CF8000026
:1009D0000C78A042D1D0001B30BD00BF194B70B5C0
:1009E0001D68AA6D04460E4632B1314620460123E9
:1009F000BDE8704000F02CB8502000F0C1F902466C
:100A0000A865D0B100230377C0E90033C0E9023301
:100A1000C0E90433C0E90A33C0E90C33C0E90E333E
:100A2000C0E91033C0E91233836143623146204686
:100A30000123BDE8704000F00BB8034B0348572179
:100A400000F050F9080000205854000870540008C5
:100A5000F0B4074610B33E468C4616F8010B01E091
:100A6000A04216D01CF8014B002CF9D1D8B116F8D1
:100A7000015B0C4601E0002BF9D014F8013B9D42CC
:100A8000F9D14DB1002306F8013C16603846F0BCA0
:100A900070475BB13746DEE72E46F6E71768002F52
:100AA000D9D13846F3E7F0BC10607047166038467D
:100AB0003B70ECE70123FFF7CBBF00BF2DE9F04F00
:100AC000814645488E4675461EF801CB10F80C400D
:100AD00014F00804F7D1BCF12D0FE34654D0BCF15B
:100AE0002B0F08BF9EF800B06FF0004808BF05F15B
:100AF000020E1BB1102B4FD01F4604E0BBF1300F8C
:100B000055D00A231F460025B8FBF7F6284607FBF9
:100B1000168A07E0864215D329D007FB00C00125BD
:100B20001EF801BBABF1300CBCF1090F06D9ABF1DB
:100B3000410CBCF1190F08D8ABF1370C63450DDD42
:100B4000002DE7DA4FF0FF35EAE7ABF1610CBCF1BD
:100B5000190F03D8ABF1570C6345F1DC002D0BDB0B
:100B600004B140420AB195BB1160BDE8F08FE24587
:100B7000D3DA4FF0FF35D3E72223C9F800301AB398
:100B80000EF1FF314046EFE79EF800B04FF000480D
:100B900005F1020E0124ACE7BBF1300FACD19EF899
:100BA000000000F0DF00582807D01F46ABE79EF892
:100BB000003003F0DF03582B0BD110279EF801B053
:100BC0003B460EF1020E9EE74046BDE8F08F8046A0
:100BD000D6E708231F4696E72D3D0008012B02D0DB
:100BE000242B00D86AE710B500F0A2F816230360A2
:100BF000002010BD012A08D0242A06D884460648C1
:100C0000134600680A46614658E710B500F090F8B0
:100C100016230360002010BD08000020012A08D020
:100C2000242A06D884460648134600680A466146C8
:100C300044E710B500F07CF816230360002010BDD7
:100C400008000020F0B5254FA2F1020E1646054619
:100C50000C460FCF8BB0EC46ACE80F000FCFACE8E2
:100C60000F0097E803004CF8040BBEF1220F8CF83C
:100C700000102ED804F1FF3E70464FF0000CB5FB7B
:100C8000F6F206FB125328336B44614613F828CC66
:100C900000F801CF2B469E4201F1010C1546EED91A
:100CA000002304F80C3089B1A44472461EF8010FE9
:100CB0001CF8015D8EF800506FEA0E0302322344E7
:100CC000121B0B449A428CF80000EEDB20460BB05E
:100CD000F0BD002020700BB0F0BD00BFA454000890
:100CE000FFF7B0BF00B50B4C25681446EE681A46F6
:100CF00085B003460D464CB107490095CDE9011476
:100D00003046064900F028F800F078FF04490C4608
:100D1000F3E700BF08000020CC540008DC540008B2
:100D2000D854000808B513460022FFF7DBFF00BFC8
:100D3000014B1868704700BF080000200CB400B5D4
:100D400083B004AB53F8042B019300F021FB03B0F4
:100D50005DF804EB02B070470EB410B583B005AB7C
:100D6000064C53F8042B01930146206800F010FB59
:100D700003B0BDE8104003B0704700BF080000207A
:100D8000024B0146186800F06DB800BF0800002053
:100D9000024B0146186800F003B800BF08000020AD
:100DA000002958D030B551F8043C83B0002BA1F194
:100DB0000404B8BFE418019001F0E8FC284A019847
:100DC000136833B1A3420DD9216804EB010C6345CC
:100DD0002FD06360146003B0BDE8304001F0D8BC90
:100DE000A34210D81A465B68002BF9D1116802EBB8
:100DF000010C644519D02FD36360546003B0BDE883
:100E0000304001F0C5BC116802EB010CA44516D0BE
:100E100022D8216804EB010C6345EDD11D685B68A5
:100E20002944C4E900135460D5E7236819441160CC
:100E3000D1E71D685B682944C4E90013CAE7246848
:100E400021445418A3421160C5D1D3E90043214481
:100E5000C2E90013BFE770470C230360BBE700BF84
:100E60009C000020F8B5CD1C25F0030508350C2D9D
:100E700038BF0C25002D064623DBA94221D8254F7B
:100E800001F084FC3A6822B3144603E0636822460A
:100E9000FBB11C4623685B1BF8D40B2B15D8636889
:100EA00094420CBF3B605360304601F071FC04F18A
:100EB0000B00231D20F00700C21A01D01B1AA350FB
:100EC000F8BD0C2333600020F8BD23601C4425606E
:100ED000EAE77968C9B12946304600F097FD431C1E
:100EE0000CD0C41C24F00304A04205D0211A3046C3
:100EF00000F08CFD013001D02560D5E70C23304691
:100F0000336001F045FC0020F8BD304600F07EFD66
:100F10007860E0E79C0000202DE9F0478F689F4251
:100F20000C461D46164638D88246888910F4906FC4
:100F30000ED108683D462A46314601F0ABFBA26857
:100F40002368D21B2B44A26023600020BDE8F087F9
:100F50004B69096903EB4308236808EBD878A3EBD6
:100F600001096B1C4FEA68084B444345424684BF65
:100F700098464246430513D511465046FFF772FF87
:100F8000074608B321694A4601F0EAFAA38923F427
:100F9000906343F08003A38107E008681F46CAE717
:100FA000504601F0F7FB074650B107EB0900A8EBEC
:100FB00009032761C4F81480A36020602F46BAE7B4
:100FC00021695046FFF7ECFE0C23CAF80030A389D4
:100FD00043F040034FF0FF30A381B7E72DE9F04F16
:100FE000936883B09146002B6ED017688D68804659
:100FF0000C460868083744E0A38913F4906F2ED09C
:10100000D4E90415A0EB010A05EB450505EBD57500
:101010000AEB06006D100130A8422A4684BF05463F
:101020002A465B0537D511464046FFF71BFF0028CF
:101030003BD052462169019001F092FAA289019BAE
:1010400022F4906242F08002A281A5EB0A0203EB37
:101050000A006561A260236120603546B2465946A8
:10106000524601F017FBA068D9F808102368451B09
:101070008E1B03EB0A00A5602060C9F808601EB350
:10108000083757E902B6002EFAD0B542AA46B3D9BE
:101090003546B246E3E7404601F07CFB03460028B4
:1010A000D3D121694046FFF77BFE0C23C8F80030FE
:1010B000A389002243F040034FF0FF30A381C9E928
:1010C000012203B0BDE8F08F0020C9F8040003B08E
:1010D000BDE8F08F2DE9F04F92468A8915069DB044
:1010E000884681461C4603D50A69002A00F0EF8035
:1010F000002209929AF800307E4D039420228DF848
:10110000292030228DF82A200126002B72D0544647
:1011100003E014F8013F002B76D0252BF9D1B4EB76
:101120000A0B74D12278002A64D000234FF0FF32DA
:10113000CDE90523049307938DF853301A930134B6
:1011400004E0049A06FA03F313430493A24605222B
:1011500014F8011B284601F0B3F9431B0028F0D115
:10116000049BD80644BF20228DF8532019079AF813
:10117000001044BF2B228DF853202A2954D1039A02
:1011800011680432002903927CDB07919AF8011060
:101190000AF1010A2E2959D0574C0322204601F0AA
:1011A0008FF940B1049B001B402404FA00F0034374
:1011B00004930AF1010A1AF8011B50488DF828100F
:1011C000062201F07DF9002862D04D4B002B52D051
:1011D00003AA00924B4B424604A94846AFF3008055
:1011E00007467A1C06D0099B3B4409939AF80030C5
:1011F000002B8CD1B8F80C305B0654BF09984FF027
:10120000FF301DB0BDE8F08FB4EB0A0BF2D05B46A7
:10121000524641464846FFF77FFE0130EAD0099B1F
:1012200022785B4409937EE7A1F13002092AB1D804
:10123000079B1AF8011F03EB830302EB4303A1F1A1
:101240003002092AF5D92E290793A5D19AF8011061
:101250002A2927D1039B9AF802101A6805920433B1
:10126000002A0AF102000393B8BF4FF0FF33824611
:10127000B8BF059390E7039B073323F007030833B8
:101280000393B0E7494243F00203079104937DE7DB
:1012900003AA00921B4B424604A9484600F05EFA9E
:1012A00007469EE7A1F130020023092A05930AF1BF
:1012B000010A3FF671AF1AF8011F03EB830302EB3B
:1012C0004303A1F13002092AF5D9059364E74021CF
:1012D000FFF7C8FDC8F80000C8F8100018B1402298
:1012E000C8F8142004E70C23C9F800304FF0FF3091
:1012F00087E700BF0C550008145500081855000872
:1013000000000000190F00089368013B002B936058
:1013100011DA10B49469A34209DB0A2907D01368D3
:10132000581C1060197008465DF8044B70475DF852
:10133000044B00F07DBB1368581C10601970084600
:10134000704700BF9BB1F8B5134406460F46541EC4
:101350005D1E01E0AC4208D014F8011F3A46304649
:10136000FFF7D2FF431CF5D1F8BD0020F8BD0020E7
:10137000704700BF936810B5144613B95360184600
:1013800010BD00F053FE0023C4E9013310BD00BFBF
:101390002DE9F04F88469FB015461C46814618B18E
:1013A0008369002B00F0A280924B984500F0A48046
:1013B000914B984500F0B180904B984508BFD9F803
:1013C0000C80B8F80C30180740F19D80D8F8103028
:1013D000002B00F0988000230B932978884E059409
:1013E00020238DF8313030238DF832300127002949
:1013F00074D02C460B4604E014F8013F002B00F09B
:101400008F80252BF8D1B4EB050B40F08C8023782E
:10141000002B63D000234FF0FF32CDE90723069362
:1014200009938DF85B301C93013404E0069A07FAA7
:1014300003F3134306932546052214F8011B304697
:1014400001F03EF8831B0028F0D1069BD90644BF6B
:1014500020228DF85B2029781A0744BF2B228DF8B3
:101460005B202A2970D1059A11680432002905925F
:10147000C0F29B800991697801352E2976D0614CA4
:101480000322204601F01CF838B1069B001B4024C3
:1014900004FA00F003430693013515F8011B5A487E
:1014A0008DF83010062201F00BF8002800F0838040
:1014B000564B002B6DD005AA0092554B424606A90B
:1014C0004846AFF300800390039B013306D00B9B8B
:1014D000039A297813440B9300298AD1B8F80C3069
:1014E0005B0617D40B981FB0BDE8F08F00F07EFDAF
:1014F000404B98457FF45CAFD9F80480B8F80C30C5
:1015000018073FF563AF4146484600F0F5FA00285A
:101510003FF461AF4FF0FF30E5E7D9F8088050E7BE
:10152000B4EB050BDAD0AA46C5F1010503E09345FB
:1015300036D91AF8011F42464846FFF7E5FE01304A
:1015400005EB0A02F3D1C9E7A1F13002092A94D8C8
:10155000099B15F8011F03EB830302EB4303A1F181
:101560003002092AF5D92E29099388D169782A29C8
:101570002BD1059BA9781A6807920433002A05F13C
:1015800002000593B8BF4FF0FF330546B8BF07937D
:1015900075E7059B073323F007030833059396E7A8
:1015A0000B9A23785A440B9232E7494243F00203E4
:1015B000099106935FE705AA0092154B424606A9DA
:1015C000484600F0CBF803907EE7A1F130020023FB
:1015D000092A079305F101053FF651AF15F8011FE0
:1015E00003EB830302EB4303A1F13002092AF5D98F
:1015F000079344E7703E0008503E0008303E000864
:101600000C5500081455000818550008000000008B
:101610004513000810B4054C8446134620685DF855
:10162000044B0A466146FFF7B3BE00BF0800002026
:101630002DE9F84F92461F460A698B68DDF828901D
:101640009A42B8BF1A46CAF8002091F843300C46B7
:10165000064613B10132CAF80020226891065DD512
:10166000DAF800300233CAF80030226812F0060FB0
:1016700011461ED1E168CB1A002BD8BF114618DDE8
:1016800004F1190B4FF0000805E0E568DAF80030C6
:10169000ED1A45450CDD01235A4639463046C84708
:1016A000013008F10108F0D14FF0FF30BDE8F88FAC
:1016B000216894F84330003B18BF01238A060AD5FD
:1016C000E1185A1C302081F84300224494F8451058
:1016D00082F84310023304F1430239463046C847CA
:1016E0000130E1D0236803F00603042B1DD0A3686A
:1016F0002269934225DD4FF000089B1A98441A3462
:10170000002501E045451CDA0123224639463046D2
:10171000C847013005F10105F4D1C5E712F0060F05
:1017200012D0003B18BF0123D5E7DAF80030E1689A
:101730002269C91AA368934221EAE178DDDC002915
:10174000DDDC0020BDE8F88FE168DAF80030CB1A64
:10175000002BD8BF114693DCABE700BF2DE9F04763
:101760000C4684B09046227E0C990746994604F1B7
:101770004300002A33D0A2F15803DDB2202D67D8F0
:10178000202B65D8DFE813F0DE00640064006400FD
:101790006400640064006400640064006400A300EA
:1017A0006E0064006400640064006E006400640005
:1017B0006400640021007F00C00064006400AE008B
:1017C00064007F0064006400E50023681A0640F1AD
:1017D00004810B6862691D1D0D601B681A6000237F
:1017E00082462361CDF80090434603AA214638463D
:1017F000FFF71EFF013020D023695246414638468C
:10180000C847013019D02368E068039E9B0719D5AB
:10181000831B002B16DD04F1190A002504E0E068A3
:10182000039E831BAB420DDD0123524641463846E1
:10183000C847013005F10105F1D14FF0FF3004B088
:10184000BDE8F087B042B8BF304604B0BDE8F087CD
:10185000012384F84220236104F1420A002384F822
:101860004330BFE723681A0602D45E0600F1C18048
:101870000D682A6804350D601546002A6BDBDFF819
:1018800084C10A2610E023681D0640F19C800B6885
:101890001D1D0D601D68DFF86CC16F2A0CBF082686
:1018A0000A26002384F843306268A260002A7FDBA6
:1018B000236823F004032360002D5BD1002A79D133
:1018C0008246082E65D0A0EB0A0020618AE70B68EB
:1018D0000122186804330B6004F1420A84F84200C4
:1018E0002261BBE70B686268181D0860D3F800A08E
:1018F0000021504600F0E4FD002800F08180A0EBBC
:101900000A0060602061A9E7236843F02003236098
:101910007822DFF8F4C084F845200A68151D0D60B0
:101920001D0643D4590641D51588DE0744BF43F050
:1019300020032360002D44D1236823F0200323607B
:101940001026AEE7582384F84530DFF8B8C0236886
:10195000E3E72368DCE76268A2602D21002AC5F175
:10196000000584F8431002DB23F004032360DFF852
:1019700094C00A268246B5FBF6F306FB13512A46AD
:101980001CF801100AF8011DB2421D46F3D2082EC0
:1019900099D12368D90796D5626823699A4292DC67
:1019A00030230AF8013C0AF1FF3A8CE71568BCE7DE
:1019B000002DDFD19CF8003084F8423004F1420A57
:1019C0007FE710266DE713F0400F0B6803F1040565
:1019D0000D600CBF1D681D885DE713F0400F0B689C
:1019E000626903F104050D601B6814BF1A801A6058
:1019F000F5E60A68B2F9005004320A602A463CE76C
:101A000060687FE7205500083455000838B5074D59
:101A10000022044608462A6001F036F9431C00D033
:101A200038BD2B68002BFBD0236038BDA4000020FC
:101A3000F8B50D461446064608B1836943B3254BF5
:101A40009C422AD0244B9C4229D0244B9C4208BF64
:101A5000F468A389A269A2601A0722D5236903B397
:101A600022686169D31AEDB299422F4629DD01330C
:101A7000A1680139A160511C2160157062699A4208
:101A800016D0A389DB0701D50A2D11D03846F8BD41
:101A900000F0ACFA0F4B9C42D4D17468D9E7B4681B
:101AA000D7E72146304600F027F838B92369D7E751
:101AB0002146304600F034F90028E7D04FF0FF37D8
:101AC000E4E72146304600F02BF90028F6D12268E1
:101AD0000123CDE7703E0008503E0008303E00086C
:101AE00010B4044C03460A4620685DF8044B1946BE
:101AF000FFF79EBF080000203C4B70B51D680646EE
:101B00000C460DB1AB69E3B1394B9C421FD0394B48
:101B10009C424DD0384B9C4208BFEC68B4F90C3065
:101B200018079AB219D5216911B312F001002FD00C
:101B30000020A06060694042A06100292ED00020F2
:101B400070BD284600F052FA294B9C42DFD16C68E8
:101B5000B4F90C3018079AB2E5D4D1063ED5520735
:101B600028D4216943F00803A3819AB20029DCD16B
:101B700002F42070B0F5007FD7D02146304600F047
:101B800011FCB4F90C3021699AB212F00100CFD1E6
:101B9000950758BF6069A0600029D0D1120658BFD0
:101BA0000846CDD543F04003A3814FF0FF3070BD10
:101BB000AC68B3E7616B51B104F14402914204D0C7
:101BC0003046FFF7EDF8B4F90C300022626321696A
:101BD0000022C4E9001223F02403C3E7092243F0E2
:101BE000400332604FF0FF30A38170BD0800002039
:101BF000703E0008503E0008303E000808B5062040
:101C000000F084FE012001F055F800BF8B891A070F
:101C10002DE9F0410C4680463FD44A68002A58DD41
:101C2000E66A002E52D00022D8F80050C8F80020F2
:101C300013F4805251D10123216A4046B047431C1E
:101C40005ED0A389E66A5F0705D56368C01A636B37
:101C50000BB1236CC01A216A024600234046B047EC
:101C6000411C3CD1D8F80030002B38D01D2B01D0BE
:101C7000162B4DD123690022C4E90032616BC8F8EC
:101C8000005019B304F14403994202D04046FFF7D3
:101C900087F800206063BDE8F0810E69B6B10D6879
:101CA0000E609A070CBF4B690023AD1B8B600BE0E5
:101CB0002B463246216AA76A4046B847B0F1000C6D
:101CC000A5EB0C05664413DD002DF1DC0020BDE81A
:101CD000F0810A6C002AA3DCF8E7606DB3E700230B
:101CE000636023692360A389DB04C7D56065C5E70A
:101CF000A38943F040034FF0FF30A381BDE8F0819A
:101D0000D8F80030002B9CD01D2B06D0162B04D009
:101D1000A38943F04003A381D9E7C8F80050D5E771
:101D200038B50B69BBB10D46044608B18369B3B140
:101D30000D4B9D4211D00D4B9D4213D00C4B9D423B
:101D400008BFE568B5F90C302BB129462046BDE83F
:101D50003840FFF75BBF002038BD6568F2E700F050
:101D600045F9E5E7A568EDE7703E0008503E00083C
:101D7000303E000838B540B303690446E3B1174B61
:101D80001D680DB1AB69CBB1154B9C420FD0154B03
:101D90009C4221D0144B9C4208BFEC68B4F90C3033
:101DA00053B121462846BDE83840FFF72FBF6C6885
:101DB000B4F90C30002BF4D1002038BD284600F0D7
:101DC00015F9074B9C42E2D1F1E7084B0849186826
:101DD000BDE8384000F0C2BAAC68DFE70800002078
:101DE000703E0008503E0008303E0008283D0008C4
:101DF000211D000800207047014900F0AFBA00BF64
:101E0000211D00080020704770B568224D1E02FB9E
:101E100005F50E4605F17401FFF724F8044640B1BC
:101E200000210C30C4E90016A06005F16802FEF73D
:101E3000A9FC204670BD00BF274B2DE9F0411E686C
:101E4000B369074653B348364FF00408D6E9013466
:101E5000013B04D51EE05A1C04F168041AD0B4F901
:101E60000C50013B002DF6D11C4B6566C4E90055B2
:101E7000C4E90253C4E90455A5610822294604F1C6
:101E80005C00FEF77FFCC4E90D55C4E912552046FD
:101E9000BDE8F08135682DB12E46D7E7304600F019
:101EA0001FF8D0E74FF4D6713846FEF7DBFF044643
:101EB00068B10560C0F804800C302946A060254652
:101EC0004FF4D072FEF75EFC34602E46BEE70C2362
:101ED00030603B60DBE700BF283D00080100FFFFEA
:101EE0002DE9F84F344B35491A68816290424FF022
:101EF0000003C0E91233036504BF01238361054673
:101F0000FFF79AFF68602846FFF796FFA86028460B
:101F1000FFF792FF6F68E86000240423C7E90243DB
:101F200008222146C7E90044C7E904447C66BC6135
:101F300007F15C00FEF726FCDFF88CB0AE68DFF836
:101F40008CA0DFF88C90DFF88C801D4BC7F828A0A0
:101F5000C7E9087BC7F82C90C7F830800822F360E7
:101F6000C6E90044C6E904447466B460B46121461D
:101F700006F15C00FEF706FCC6E9086BC6E90AA993
:101F8000C6F83080EE680F4BF360C6E90044C6E93E
:101F900004447466B460B4612146082206F15C0012
:101FA000FEF7F0FB0123C6E9086BC6E90B98C6F8FB
:101FB00028A0AB61BDE8F88F283D0008F91D000896
:101FC00009000100120002007D2A0008A52A00086D
:101FD000E52A0008052B0008024B0349186800F0A9
:101FE000BDB900BF283D0008211D0008836903B961
:101FF00076E77047704700BF704700BF704700BF6B
:10200000704700BF024B0349186800F087B900BF52
:1020100008000020F51D0008024B0349186800F075
:102020007DB900BF08000020051E00089368002B42
:1020300000F085802DE9F04FB1F90C300C461907FE
:10204000804683B0174698B225D523691BB310F09C
:1020500002033D682DD04FF0000ADFF8BCB25646AF
:10206000B9465E453346524628BF5B464046002E81
:1020700052D0216AA76AB847002856DDD9F808303F
:102080001B1A8244361AC9F80830002BE9D1002007
:1020900003B0BDE8F08F21464046FFF72DFD002834
:1020A00040F03681B4F90C303D6898B210F002036C
:1020B000D1D110F0010944D14E46009746B38205B4
:1020C000D4F808B040F18380B3455A4600F2B2809C
:1020D00010F4906F40F0BF8020680192494600F0F4
:1020E000D9FAA368019AA3EB0B012368A1601344FA
:1020F000B24623600026009B9868A0EB0A00D144FA
:1021000098600028C3D0B4F90C0080B2002ED6D15C
:10211000D5E900960835D1E7D5E900A60835A0E74E
:1021200021464046FFF7FCFD80B3B4F90C3043F084
:1021300040034FF0FF30A38103B0BDE8F08F0020D3
:1021400070471E46AA46994618461D46009756B344
:1021500088B34A46D4E904132068B24228BF324605
:10216000884205D9A16803EB010B5A4500F3A6800C
:10217000934263DC216AA76A2A464046B847B0F119
:10218000000BD2DDB9EB0B09CAD00120009A93688D
:10219000A3EB0B035D44A6EB0B069360002B3FF40F
:1021A00076AF002ED4D10AF1080353E902569A46BD
:1021B0000833002EF9D032460A21284600F080F973
:1021C000002800F09C800130A0EB0509C1E72068E1
:1021D0002369984216D86369B34213D86FF000425E
:1021E000B24228BF3246216A92FBF3F2A76A02FB91
:1021F00003F340464A46B847B0F1000A95DDA6EB26
:102200000A0678E7B345DA4628BFB2465246494641
:1022100000F040FAA3682268A3EB0A035244A360CB
:102220002260002BEBD121464046FFF779FD0028C4
:10223000E5D07AE72068B34632464EE72946019258
:1022400000F028FA019AA3689B1AA360236813443C
:102250002360934696E723682169A3EB010B63692A
:1022600003EB430A0AEBDA7A0BF101034FEA6A0A3D
:1022700033445345524684BF9A46524643052CD5B3
:1022800011464046FEF7EEFD00283BD05A46216934
:10229000019000F065F9A289019B22F4906242F05E
:1022A0008002A28103EB0B002361AAEB0B03C4F8AD
:1022B00014A0A3602060B34632460EE729465A4672
:1022C00000F0E8F923685B44236021464046FFF7AD
:1022D00027FD00283FF456AF27E7404600F05AFAA2
:1022E00003460028DED121694046FEF759FDB4F9C6
:1022F0000C300C2223F08003C8F8002017E7721C72
:10230000914627E70C22B4F90C30C8F800200EE7FC
:102310004FF0FF30BCE600BF00FCFF7F2DE9F0412D
:10232000884600F148070026D7E90154013D0FD443
:10233000A389012B05F1FF3506D9B4F90E3001331D
:10234000204601D0C04706436B1C04F16804EFD15E
:102350003F68002FE8D13046BDE8F0812DE9F84311
:102360000746884600F148064FF00009D6E90154B7
:10237000013D11D4A389012B05F1FF3508D9B4F92A
:102380000E300133214603D03846C04749EA0009E0
:102390006B1C04F16804EDD13668002EE6D1484686
:1023A000BDE8F883F0B58B890C46990797B007D53F
:1023B00004F147030122C4E90432236017B0F0BDE1
:1023C000B4F90E10002905462DDB6A4600F0C6FB65
:1023D000002827DB019E06F470464FF48067A6F5BF
:1023E0000056B6FA86F6394628467609FEF73AFDD3
:1023F00030B3A3891A4AAA6243F08003C4E90407F0
:10240000A3812060002ED9D0B4F90E10284600F028
:10241000BBFB0028D2D0A38923F0030343F00103C0
:10242000A381CBE7A38913F0800F14BF40274FF49B
:102430008067394628460026FEF714FD0028D8D1CB
:10244000B4F90C309A05B9D423F0030304F1470220
:1024500043F002030121C4E90421A3812260ADE716
:10246000F91D000870B50C46B1F90E10002996B0A0
:1024700016461D4613DB6A4600F070FB00280EDB93
:10248000019901F47041A1F50051B1FA81F14FF4C5
:102490008063490900202960336016B070BDB4F92B
:1024A0000C3000221B062A6004D540230020336034
:1024B00016B070BD4FF480630020336016B070BD5D
:1024C00001F0FF01102A2BDB10F0070F08D010F8E5
:1024D000013B013A8B422DD010F0070F42B3F6D1E9
:1024E000F0B441EA012141EA014122F007047FF002
:1024F00000070023F0E80256083C85EA010586EA59
:10250000010685FA47F5A3FA87F586FA47F6A5FA94
:1025100087F68EB9EED1F0BC01F0FF0102F00702A0
:1025200032B110F8013B013A83EA010313B1F8D14B
:102530000020704701387047002D06BF354603382C
:10254000073815F0010F07D1013015F4807F02BF65
:10255000013015F4C03F0130F0BC0138704700BFB6
:10256000844641EA000313F003036DD1403A41D39E
:1025700051F8043B40F8043B51F8043B40F8043B5D
:1025800051F8043B40F8043B51F8043B40F8043B4D
:1025900051F8043B40F8043B51F8043B40F8043B3D
:1025A00051F8043B40F8043B51F8043B40F8043B2D
:1025B00051F8043B40F8043B51F8043B40F8043B1D
:1025C00051F8043B40F8043B51F8043B40F8043B0D
:1025D00051F8043B40F8043B51F8043B40F8043BFD
:1025E00051F8043B40F8043B51F8043B40F8043BED
:1025F000403ABDD2303211D351F8043B40F8043B8D
:1026000051F8043B40F8043B51F8043B40F8043BCC
:1026100051F8043B40F8043B103AEDD20C3205D39C
:1026200051F8043B40F8043B043AF9D2043208D094
:10263000D2071CBF11F8013B00F8013B01D30B8806
:1026400003806046704700BF082A13D38B078DD0E4
:1026500010F003038AD0C3F10403D21ADB071CBFB6
:1026600011F8013B00F8013B80D331F8023B20F820
:10267000023B7BE7043AD9D3013A11F8013B00F859
:10268000013BF9D20B7803704B7843708B788370E1
:102690006046704788420DD98B1883420AD900EBF7
:1026A000020CBAB1624613F801CD02F801CD99428D
:1026B000F9D170470F2A0ED8034602F1FF3C4AB108
:1026C0000CF1010C013B8C4411F8012B03F8012F94
:1026D0006145F9D1704740EA01039B0750D1A2F14F
:1026E000100370B501F1200C23F00F0501F1100E5D
:1026F00000F11004AC441B095EF8105C44F8105C57
:102700005EF80C5C44F80C5C5EF8085C44F8085C0D
:102710005EF8045C44F8045C0EF1100EE64504F12A
:102720001004E9D1013312F00C0F01EB031102F098
:102730000F0400EB031327D0043C24F003064FEAF8
:10274000940C1E441C1F8E465EF8045B44F8045F24
:10275000B442F9D10CF1010402F0030203EB84034B
:1027600001EB840102F1FF3C4AB10CF1010C013B89
:102770008C4411F8012B03F8012F6145F9D170BD8C
:1027800002F1FF3C03469BE72246EBE7704700BFA0
:10279000704700BFF8B51446F9B1CAB106460D46F8
:1027A00000F01AFAA04202D32F463846F8BD21465F
:1027B0003046FEF757FB07460028F6D0224629464A
:1027C000FFF7CEFE30462946FEF7EAFA3846F8BD56
:1027D0002746FEF7E5FA3846F8BDBDE8F840114651
:1027E000FEF740BB38B5446C0CB1002038BD8021E9
:1027F0000546FEF737FB0246686430B1031F7C32A2
:1028000043F8044F9342FBD1EFE74FF0FF3038BD60
:102810001F29F8B5054608D8466C0C4617464EB138
:1028200056F8240046F82470F8BD162303604FF0D4
:10283000FF30F8BD8021FEF715FB0646686440B105
:10284000031F00F17C05002143F8041F9D42FBD1CA
:10285000E6E74FF0FF30F8BD1F2938B5054620D810
:10286000426C0C466AB152F8213053B1012B16D09C
:10287000591C10D00025204642F82450984728467D
:1028800038BD284600F0F8F8224601462846BDE843
:10289000384000F0DBB816230360012038BD00206B
:1028A00038BD162303604FF0FF3038BD1F292AD8EA
:1028B000426C38B50C46054682B152F8243002EB22
:1028C00084024BB1591C19D0012B15D0002520468C
:1028D00015609847284638BD012038BD8021FEF795
:1028E000C1FA0246686458B1031F00217C3043F8E6
:1028F000041F9842FBD1E0E7032038BD022038BD19
:102900004FF0FF3038BD4FF0FF30704738B5144BF3
:102910001F281D681FD86A6C044662B152F8203027
:102920004BB1012B15D0591C0FD0002542F8205077
:102930009847284638BD284600F09EF822460146B2
:102940002846BDE8384000F081B816232B600120EE
:1029500038BD002038BD16232B604FF0FF3038BD46
:1029600008000020124B1F2870B51E6808D80D46BD
:10297000716C044649B151F8240041F8245070BDEF
:10298000162333604FF0FF3070BD80213046FEF7D4
:1029900069FA0146706440B1031F00F17C0C00220B
:1029A00043F8042F6345FBD1E5E74FF0FF3070BDDE
:1029B0000800002038B50B4B1D686C6C0CB1002072
:1029C00038BD80212846FEF74DFA686438B1031FF0
:1029D00000F17C0243F8044F9342FBD1EFE74FF044
:1029E000FF3038BD0800002038B5174B1F281D6880
:1029F00026D86A6C044682B152F8243002EB840275
:102A00004BB1591C1AD0012B16D000252046156059
:102A10009847284638BD012038BD80212846FEF75A
:102A200021FA0246686458B1031F00217C3043F844
:102A3000041F8342FBD1DFE7032038BD022038BDED
:102A40004FF0FF3038BD00BF0800002070B50C46C5
:102A5000084D03460026204611461C462E6000F015
:102A6000FBF8431C00D070BD2B68002BFBD023600B
:102A700070BD00BFA400002000F0DEB810B50C4609
:102A8000B1F90E1000F0B2F8002803DB636D0344C7
:102A9000636510BDA38923F48053A38110BD00BFDB
:102AA000002070472DE9F0410C46B1F90C101F468B
:102AB000CB05054616460BD421F48051A1813B4637
:102AC000B4F90E1032462846BDE8F04100F01EB8B9
:102AD000B4F90E100223002200F068F8B4F90C10CB
:102AE000EAE700BF10B50C46B1F90E1000F05EF831
:102AF000A389421C0EBF23F4805343F480536065C6
:102B0000A38110BDB1F90E1000F016B838B50C460F
:102B1000084D8446114620461A4600232B60644621
:102B200000F0C0F8431C00D038BD2B68002BFBD050
:102B3000236038BDA400002038B5074D00220446AC
:102B400008462A6000F068F8431C00D038BD2B68A6
:102B5000002BFBD0236038BDA400002070B50C46CC
:102B6000084D03460026204611461C462E6000F004
:102B70005BF8431C00D070BD2B68002BFBD023609A
:102B800070BD00BFA400002038B5074D00220446E8
:102B900008462A6000F058F8431C00D038BD2B6866
:102BA000002BFBD0236038BDA400002038B50C46B4
:102BB000084D8446114620461A4600232B60644681
:102BC00000F052F8431C00D038BD2B68002BFBD01E
:102BD000236038BDA400002051F8040C0028A0F1A7
:102BE0000400BCBF0B58C018704700BF38B50C4676
:102BF000084D8446114620461A4600232B60644641
:102C000000F03AF8431C00D038BD2B68002BFBD0F5
:102C1000236038BDA4000020024B58221A604FF0F8
:102C2000FF307047A4000020024B58221A604FF07A
:102C3000FF307047A4000020024B58221A604FF06A
:102C4000FF307047A4000020024B58221A60002079
:102C5000704700BFA4000020024B58221A604FF0BA
:102C6000FF307047A4000020024B58221A604FF03A
:102C7000FF307047A4000020024B58221A604FF02A
:102C8000FF307047A4000020044A05491368002B58
:102C900008BF0B461844106018467047A800002073
:102CA00010010020024B58221A604FF0FF3070478D
:102CB000A4000020FEE700BF654B2DE9F04F1A8805
:102CC00093B09B780646ADF80C2038208DF80E3076
:102CD0000F46604B604C1A889B78ADF810208DF839
:102CE000123000F023FA002800F0A08000235B4A95
:102CF000DFF8809194E803008DE8030003216E2043
:102D000000F01FFE032203A9382000F087F93220CB
:102D100000F074FE032204A9382000F07FF964203B
:102D200000F06CFE062205A9382000F0BBF99DF8E2
:102D300016509DF8152007A82D029DF81730484918
:102D400045EA023564221C0445EA1315BDF8183023
:102D500004F470245BBA55439BB22D0D1C43C82369
:102D60002A465C43FDF77CFD07A8240D00F006FF12
:102D70003C49323C07A82246FDF772FD07A800F047
:102D8000FDFED9F80020AA4223D0DFF8ECB007A856
:102D900035491FFA86F8FDF763FD00231FFA87FA0D
:102DA00007AA9BE803008DE803005146404600F067
:102DB000C8FD2A462C4907A8FDF752FD4FF4FC63D5
:102DC00007AA9BE803008DE803005146404600F047
:102DD000B8FDDFF8A880D8F80020A24221D0DFF8A3
:102DE00098A007A82149B6B2FDF73AFD1437002391
:102DF00007AA9AE803008DE803003946304600F040
:102E0000A0FD2246194907A8FDF72AFD4FF4FC63EF
:102E100007AA9AE803008DE803003946304600F01F
:102E200090FDC9F80050C8F800400DE0104800F0CF
:102E3000A5FE4FF47843094A94E803008DE80300A7
:102E400003216E2000F07DFD13B0BDE8F08F00BFC0
:102E5000DC3E0008DF3E000874000020903E0008C1
:102E6000923E0008A33E0008C93E0008D33E000879
:102E7000B23E0008AC0000206C000020B000002032
:102E8000164AD2F8E03043F01003C2F8E030144B99
:102E90001A6822F440121A601A6822F040721A600E
:102EA0001A6822F040521A605A6822F480625A600E
:102EB0005A6822F480525A605A6822F480425A605A
:102EC000DA6842F48012DA60DA6842F08072DA601E
:102ED000DA6842F08052DA60704700BF004402585E
:102EE000001002582DE9F041164E0546345C2CB115
:102EF000012C19D000233354184609E0DFF848802C
:102F00000124D8F8103004FA00F73B4202D0002028
:102F1000BDE8F081142000F071FDD8F810301F4298
:102F2000F5D120467455F3E7074F84403A692242B1
:102F3000EDD0142000F062FD3B691C42E7D0002375
:102F40007355E4E7B40000200010025808B50E20C5
:102F5000FFF7C8FF08B100F02DF90C20FFF7C2FF02
:102F600018B1BDE8084000F067BD08BD284BD3F894
:102F7000E02042F00202C3F8E020D3F8E82042F457
:102F80000012C3F8E820A3F580431A6822F4403207
:102F90001A601A6842F400321A601A6822F4402259
:102FA0001A601A6842F400221A605A6822F44072C9
:102FB0005A605A6842F440725A60DA6822F4402239
:102FC000DA60DA6842F48022DA60DA6822F44032A9
:102FD000DA60DA6842F48032DA609A6822F47022A9
:102FE0009A609A6842F470229A605A6A22F0FF024C
:102FF0005A625A6A42F044025A620022054B1A6031
:103000005A60054A1A611A6842F001021A60704754
:103010000044025800540040CC8DC1101E4BF0B546
:1030200000241E4F5C605E6846EA02465E605E6891
:1030300046F000765E605D6845EA4000184D5860D5
:10304000586840F4005058602046904205DB124B0F
:103050009A699206FCD5202216E000260F4C2F60BC
:10306000D3F818C01CF0120F05D006B12C600C5C10
:1030700001309C62E9E7D3F818C01CF0100F05D0AE
:1030800006B12C60044B1022DA6104E0013C4FF0E1
:103090000106E5D12C60F0BD0054004040420F0015
:1030A000C40000201E4BF0B500241E4F5C605E681B
:1030B00046F480665E605E6846EA02465E605E6870
:1030C00046F000765E605D6845EA4000164D586047
:1030D000586840F4005058602046904205DB104B81
:1030E0009A699206FCD520220DE000260D4C2F6037
:1030F000D3F818C01CF0140F07D006B12C609C69DF
:10310000E40608D51022DA6104E0013C4FF0010624
:10311000EED12C60F0BD5C6A0C540130DDE700BFDD
:103120000054004040420F00C40000201E4B4FF4EA
:103130004C7210B5DA6100225A60596859605C68B7
:1031400044F000745C60596841EA40005860596876
:10315000164841F400515960154908609C6914F003
:10316000700F09D002B108609A6912F0100209D0FC
:1031700030220020DA6104E001384FF00102EDD185
:10318000086010BD094B08480B608469A40604D58B
:103190003AB92023C3610120F3E7013B4FF001025C
:1031A000F3D10B60F5E700BF0054004040420F0030
:1031B000C400002030B508240F4D85B00F4800F042
:1031C000DDFC012000F01AFC2046FFF7AFFF50B1F4
:1031D000284600F0D3FC102201A92046FDF7BCFAD6
:1031E00001A800F0CBFC0134782CEAD1044800F0AF
:1031F000C5FC05B030BD00BFC6530008AA53000887
:10320000DB530008074AD2F8E03043F00203C2F86B
:10321000E030A2F58042136823F00C0343F004036E
:103220001360704700440258144A38B5137883B1CC
:103230001349D1F8E03043F01003C1F8E030A1F5B4
:1032400050510B6823F00C0343F004030B60002380
:1032500013700C4D0C4C2B6822689B1AB3F57A7FC7
:103260000AD30A4A03215369084683F002035361D3
:1032700000F030F92B68236038BD00BF7C000020CF
:1032800000440258E4000020C8000020001002584A
:1032900007B5002400F03CF800F080FB1A4D00F068
:1032A00091FB4FF4165000F015FC2646FFF75EFE2A
:1032B00000F07CF800F05CF9FFF7A4FFFFF7E0FDF9
:1032C00000F038FAA023802221462046009400F026
:1032D00086FA0E4800F052FC2B681B1B312B06D9D6
:1032E00000F07CFC00F092FCFFF730FE2C682B68AD
:1032F0009B1BB3F5FA6F04D314210320FFF7DCFC0A
:103300002E68FFF791FFE7E7E4000020F75300087D
:10331000234B1A6842F480321A601A689103FCD574
:103320001A68042122F080721A601E4A116042223B
:103330009A621D4A1A63DA6A42F00C02DA62DA6AA9
:1033400042F48032DA62DA6A42F40032DA62DA6A2D
:1033500042F48022DA621A6842F080721A60104BDE
:103360001A689201FCD548229A61DA6942F040025B
:10337000DA61DA6942F48062DA611A6A42F0400284
:103380001A621A6922F007021A611A6942F00302EE
:103390001A61034A136903F03803182BFAD17047F6
:1033A00000440258002000529003010110B51E4C49
:1033B00005201E4AD4F8F43043F40033C4F8F43046
:1033C000136843F48073136000F022FB236F43F013
:1033D0000103236742F21073226F910701D4013B6E
:1033E000FAD1236FCA2223F440732367236F43F477
:1033F00080732367236F43F4004323670C4B5A62A7
:1034000053225A62DA6842F08002DA60DA685206C1
:10341000FCD5084A1A61DA6822F08002DA60FE22DE
:103420005A6264225A6210BD004402580048025891
:1034300000400058FF007F00144ACA2330B5536291
:1034400053235362D36843F08003D360D3685B0691
:10345000FCD50A24B1FBF4F504FB1513B0FBF4F121
:10346000DBB204FB11001B02C0B243EA053343EA9E
:10347000015343EA00431360D36823F08003D36011
:10348000FE2353626423536230BD00BF00400058E6
:103490000F4B1B6830B5C3F30154C3F3034504EB72
:1034A000840405EB44040470C3F30230C3F3032423
:1034B00000EB800004EB40000870C3F3021103F03E
:1034C0000F0301EB810103EB4103137030BD00BF1B
:1034D000004000582DE9F0471F4F88B0DFF8848086
:1034E0000446DFF884903A460D46414648461B4E56
:1034F000FFF7CEFF00231022A4B21946ADB20DEBA8
:103500000200DFF868A00393FDF73CF95246002360
:1035100096E803008DE803002946204600F011FAE2
:1035200099F8002098F8003003A8397800910C49E8
:10353000FDF796F94FF6205303AA96E803008DE8AD
:1035400003002946204600F0FCF903A95046FDF788
:10355000A7F908B0BDE8F087CE0000206C0000207D
:103560000C540008CD000020CC000020CF0000202B
:10357000214BD3F8E02042F00102C3F8E020D3F859
:10358000F02042F48052C3F8F020A3F588431A6873
:1035900022F47C421A601A6842F428421A609A683F
:1035A00042F47C429A601A6AC2F313021A621A6ADF
:1035B00042F0AA4242F4A0021A6200220F4B1A60A3
:1035C0009A60DA609A6842F080529A609A6842F093
:1035D00007029A601A6842F480521A60DA6842F070
:1035E0008062DA60DA6842F48002DA60DA6842F017
:1035F0000042DA60704700BF0044025800300140CA
:103600000B4B1A6842F001021A601A6842F4007209
:103610001A605A699107FCD583F820005A69D204D0
:10362000FCD51A68002022F001021A60704700BF22
:103630000030014007B500238DF80500022201A9E2
:103640003C208DF80430FFF7E9FC03B05DF804FB83
:1036500010B1A720FFF7EEBFA620FBE70F4A1048E6
:10366000D2F8E03043F00103C2F8E0300D4B1968A6
:10367000014019601A6842F4A02242F010021A6058
:103680009A6802409A609A6842F4702242F03002CE
:103690009A609A6942F400729A6170470044025835
:1036A000CFFFF0FF00000258024A936943F0040381
:1036B0009361704700000258024A936943F48023E3
:1036C0009361704700000258024A936943F4807383
:1036D0009361704700000258024A936943F0807377
:1036E000936170470000025810B50A4C0A20A36984
:1036F00043F40073A36100F081F9A3690A2043F049
:103700000073A36100F07AF9A36943F40073A36125
:1037100010BD00BF0000025808B5FFF7CDFFBDE89F
:103720000840FFF76DBF08B5FFF7BEFFBDE80840D2
:10373000FFF766BF08B5FFF791FFFFF7D5FF0A2037
:1037400000F05CF90A20FFF7C7FF00F057F91120DD
:10375000FFF7E2FF782000F051F93A20FFF7DCFF95
:103760000520FFF7E0FF3620FFF7D6FF1420FFF714
:10377000DAFF2920FFF7D0FF6420BDE8084000F001
:103780003DB9F8B5174605462A201E46EDB2013F61
:103790000C46FFF7C1FF0020FFF7C5FF28463D4458
:1037A000FFF7C1FF0020E4B2FFF7BDFFE8B2FFF76B
:1037B000BAFF2B20FFF7B0FF0020FFF7B4FF204631
:1037C000FFF7B1FF0020FFF7AEFF701E2044C0B22C
:1037D000FFF7A9FF2C20BDE8F840FFF79DBF7F2829
:1037E0002DE9F84306460D4617461C46BDF82080D5
:1037F00057D89F2955D8002A53D0002B51D0831871
:10380000F6B2EDB2802B01EB04034FEA1829C8BFD2
:10381000C0F180005FFA88F8C8BF87B2A02BC4BF90
:10382000C1F1A004A4B2FFF757FF2A20FFF774FFED
:103830000020FFF778FF3046013EFFF774FF0020BD
:103840003E44FFF770FFF0B20026FFF76CFF2B201D
:10385000FFF762FF0020FFF766FF2846013DFFF7F4
:1038600062FF00202544FFF75EFFE8B2FFF75BFF31
:103870002C20FFF751FFFFF717FF002501354846C1
:10388000FFF7BEFE40462DB2FFF7BAFEBD42F5DBA4
:10389000013636B2A642F0DBFFF716FF0120BDE885
:1038A000F8830020FBE77F2810B514460FD89F2926
:1038B0000DD801231A46FFF764FFFFF7F5FE200A33
:1038C000FFF79EFEE0B2FFF79BFE012010BD002037
:1038D000FCE72DE9F74F1446994605460E462206A9
:1038E0000D9B9DF831800CD4203C08FB04F403EBC5
:1038F000440A00274FF0010B474506DB03B0BDE843
:10390000F08FBF2CF5D9C03CEFE7F1193AF817302A
:10391000002489B29DF83020A24201DC0137EBE798
:10392000C4F10F020BFA02F2134208D028194A46DA
:10393000019380B20091FFF7B6FFDDE90013013477
:10394000E8E72DE9F743144607460D469946013C42
:103950009DF82880FFF7C0FE3E4614F8012F22B9DB
:1039600003B0BDE8F043FFF7AFBE0AAB8DF8288087
:1039700093E803004B468DE8030030462946FFF7E5
:10398000A8FF06EB080296B218FA82F2802AE4DD5C
:103990009DF829100D44ADB2DEE7000008B5FCF734
:1039A00033FD074B4FF47A721B68B3FBF2F34FF011
:1039B000E022013B5361002393610723136108BD9B
:1039C00000000020074AD2F8FC3043F08073C2F8B0
:1039D000FC300022044B5A601A6842F001021A605F
:1039E000704700BF00ED00E0001000E0024A1368DD
:1039F00001331360704700BFE4000020034A1168E0
:103A000013685B1A8342FBD3704700BFE4000020B9
:103A1000064B074A1B68516810B5064CB3FBF4F31C
:103A2000584353685B1A8342FBD310BD000000204B
:103A3000001000E040420F0030B58FB06023012538
:103A4000022201A94E208DF8053000248DF8045083
:103A5000FFF7E4FA4FF4C870FFF7D0FF2A46694633
:103A60004E208DF80040FFF7D9FA0A20FFF7C6FF75
:103A700002A902224E20ADF80840FFF713FB9DF883
:103A8000093003A89DF8082003F0F00303EB02239C
:103A90001A11B3F5004FA8BFA2F58052534202F0AD
:103AA0000F0103F00F0358BF594264234B430849E9
:103AB00048BF0F33002AB8BF0F32C3F30713C2F356
:103AC0000712FCF7CDFE03A800F058F80FB030BD88
:103AD0001B540008214B8000D3F8E02042F008027C
:103AE000C3F8E020D3F8E82042F48022C3F8E820AD
:103AF000A3F560531A6822F440221A601A6842F44F
:103B000000221A601A6822F440321A601A6842F4DD
:103B100000321A605A6822F440725A609A6842F47D
:103B200020229A605A6A42F077025A6200220C4BB5
:103B30001A605A609A600B4AB2FBF0F0D8601A68BB
:103B400042F020021A601A6842F00D021A60202228
:103B5000054B83F8272380225A607047004402589F
:103B6000004800400084D71700E100E0024BDA690A
:103B70001206FCD59862704700480040411E08B507
:103B800011F8010F00B908BDFFF7F0FFF8E70000DA
:103B90000E4BDA69920618D55A6A01210C4BD2B243
:103BA0000C4819700D2A0C4B02D019781E2905D922
:103BB0001A780021D2B28154197070471978C9B2AD
:103BC00042541A780132D2B21A707047004800404D
:103BD000E8000020E90000200901002010B5074C92
:103BE000237853B10648FFF7C9FF0648FFF7C6FF21
:103BF0000548FFF7C3FF0023237010BDE800002035
:103C00002F540008E90000204E540008F0B5214D63
:103C100089B0022220492846FCF7A0FE044618BBC2
:103C20001E492846FCF7DAFE1D492046FCF7D6FE61
:103C30001B4906462046FCF7D1FE07463046FCF7F6
:103C400049FD06463846FCF745FD0746C1B2F0B2CD
:103C5000FFF7F2FB3B46324612496846FCF700FE8E
:103C60006846FFF78BFF2C7003220F490948FCF7C9
:103C700075FE044660B909490648FCF7AFFE0749DE
:103C80002046FCF7ABFEFCF725FDFFF7E1FC2C70AE
:103C900009B0F0BDE9000020355400083354000895
:103CA000385400083A54000851540008DFF834D062
:103CB000002103E00C4B5B58435004310B480C4B84
:103CC00042189A42F6D30B4A02E0002342F8043B22
:103CD000094B9A42F9D3FCF727FBFCF703FDFFF7EA
:103CE000D7FA70470000022050550008000000205D
:103CF00080000020800000200C010020FEE7000072
:103D0000F8B500BFF8BC08BC9E467047F8B500BFC8
:083D1000F8BC08BC9E46704798
:103D18000000000001020304010203040607080969
:103D28000C000020002020202020202020202828EF
:103D38002828282020202020202020202020202063
:103D480020202020208810101010101010101010A3
:103D580010101010100404040404040404040410D3
:103D68001010101010104141414141410101010161
:103D7800010101010101010101010101010101012B
:103D88001010101010104242424242420202020237
:103D980002020202020202020202020202020202FB
:103DA80010101010200000000000000000000000AB
:103DB80000000000000000000000000000000000FB
:103DC80000000000000000000000000000000000EB
:103DD80000000000000000000000000000000000DB
:103DE80000000000000000000000000000000000CB
:103DF80000000000000000000000000000000000BB
:103E080000000000000000000000000000000000AA
:103E1800000000000000000000000000000000009A
:103E2800000000000000000000000000000000008A
:103E3800000000000000000000000000000000007A
:103E4800000000000000000000000000000000006A
:103E5800000000000000000000000000000000005A
:103E6800000000000000000000000000000000004A
:103E7800000000000000000000000000000000003A
:103E8800000000000000000058000A204148543299
:103E9800305F483A20256C750A0D0041485432308D
:103EA8005F543A20256C750A0D00414854204E4F46
:103EB8005420464F554E44202830783338290A0D6F
:103EC80000483A20256C7520252500543A20256C99
:103ED800752A4300BE0800AC330000000000000053
:103EE80000000000000000000000000000000000CA
:103EF80000000000000000000000000000000000BA
:103F0800000C000C000C000C000C000C000C000C49
:103F1800000C000C000C0000000C000C000000005D
:103F280000000000001B001B001B001B001B000002
:103F38000000000000000000000000000000000079
:103F48000000000000000000801980198019801905
:103F5800C07FC07F80190033C07FC07F003300332B
:103F6800003300330000000000000000001E003F86
:103F7800807580650074003C001E00078005806520
:103F880080658075003F001E0004000400000000EA
:103F9800007000D840D8C0D880D900730006000C43
:103FA800801BC036C066C046C00680030000000003
:103FB80000000000001E003F003300330033001EE5
:103FC800000CC03CC066806380618063C03E801C7A
:103FD8000000000000000000000C000C000C000CA9
:103FE800000C0000000000000000000000000000BD
:103FF8000000000000000000000080000001000335
:10400800000600060004000C000C000C000C000C5C
:10401800000C0004000600060003000180000020D8
:1040280000100018000C000C000400060006000632
:104038000006000600060004000C000C0018001022
:1040480000200000000C002D003F001E003300007F
:104058000000000000000000000000000000000058
:10406800000000000000000000000000000C000C30
:10407800000C000CC0FFC0FF000C000C000C000C72
:104088000000000000000000000000000000000028
:104098000000000000000000000000000000000018
:1040A80000000000000C000C0004000400080000E0
:1040B80000000000000000000000000000000000F8
:1040C800001E001E000000000000000000000000AC
:1040D80000000000000000000000000000000000D8
:1040E800000000000000000000000000000C000CB0
:1040F80000000000000000000003000300030006A9
:10410800000600060006000C000C000C000C00184D
:10411800001800180000000000000000001E003F0A
:104128000033806180618061806D806D8061806115
:1041380080610033003F001E000000000000000006
:104148000006000E001E00360026000600060006C7
:104158000006000600060006000600060000000033
:1041680000000000001E003F8073806180618001B4
:1041780000030006000C001800300060807F807F7C
:104188000000000000000000001C003E0063006307
:104198000003000E000E000380018001806180731F
:1041A800003F001E00000000000000000006000E96
:1041B800000E001E001E0016003600360066807FC6
:1041C800807F0006000600060000000000000000D6
:1041D800007F007F006000600060006E007F8063E9
:1041E8008001800180618073003F001E0000000094
:1041F80000000000001E003F803380610060006EF8
:10420800007F80738061806180618033003F001E81
:104218000000000000000000807F807F8001000314
:10422800000300060006000C000C000C0008001833
:10423800001800180000000000000000001E003FE9
:104248008063806180610021001E003F8061806181
:1042580080618061003F001E000000000000000037
:10426800001E003F00738061806180618073803F21
:10427800801D800180610073003F001E0000000067
:10428800000000000000000000000000000C000C0E
:10429800000000000000000000000000000C000CFE
:1042A8000000000000000000000000000000000006
:1042B8000000000C000C00000000000000000000DE
:1042C800000C000C000400040008000000000000BE
:1042D800000080008003000E003800600038000EE7
:1042E80080038000000000000000000000000000C3
:1042F8000000000000000000807F807F00000000B8
:10430800807F807F000000000000000000000000A7
:104318000000000000000000000000400070001CC9
:10432800000780010007001C00700040000000002A
:104338000000000000000000001F803FC071C06046
:10434800C000C00180030007000E000C000C000034
:10435800000C000C0000000000000000001E003FE0
:10436800803180718063806F806D806D806F806721
:1043780000600032003E001C000000000000000049
:10438800000E000E001B001B001B001B803180313B
:10439800803F803F8031C060C060C0600000000086
:1043A80000000000007C007E00630063006300637F
:1043B800007E007E0063806180618063007F007EF4
:1043C8000000000000000000001E003F80318061F6
:1043D8000060006000600060006000608061803103
:1043E800003F001E0000000000000000007C007F6D
:1043F8000063806380618061806180618061806129
:1044080000630063007E007C0000000000000000E4
:10441800807F807F0060006000600060007F007F18
:104428000060006000600060807F807F0000000006
:1044380000000000807F807F0060006000600060F6
:10444800007F007F00600060006000600060006026
:104458000000000000000000001E003F8031806165
:1044680000600060006080638063806180618031EB
:10447800803F001E00000000000000008061806195
:104488008061806180618061807F807F80618061E0
:104498008061806180618061000000000000000090
:1044A800003F003F000C000C000C000C000C000C3E
:1044B800000C000C000C000C003F003F0000000046
:1044C80000000000800180018001800180018001DE
:1044D800800180018001806180618073003F001E3F
:1044E8000000000000000000C060806100630066FA
:1044F8000066006C0078007C0066006600638061DE
:104508008061C0600000000000000000807F807FA4
:104518000060006000600060006000600060006093
:104528000060006000600060000000000000000003
:10453800C071C071C07BC07AC06AC06AC06EC064F6
:10454800C060C060C060C060C060C06000000000A3
:104558000000000080718071807980798079806D99
:10456800806D806D80658067806780678063806309
:104578000000000000000000001E003F00338061C2
:1045880080618061806180618061806180610033C9
:10459800003F001E0000000000000000007E007FB9
:1045A80080638061806180618063007F007E00603D
:1045B8000060006000600060000000000000000073
:1045C800001E003F003380618061806180618061EE
:1045D8008061806580670033803F401E00000000D6
:1045E80000000000007E007F80638061806180633E
:1045F800007F007E00660063006380618061C060A8
:104608000000000000000000000E001F8031803113
:1046180000300038001E000780038061806180310F
:10462800003F001E0000000000000000C0FFC0FFA7
:10463800000C000C000C000C000C000C000C000C12
:10464800000C000C000C000C000000000000000032
:10465800806180618061806180618061806180614A
:104668008061806180618073003F001E000000004F
:1046780000000000C060C060C060803180318031BF
:10468800001B001B001B001B000E000E000E000488
:104698000000000000000000C0C0C0C0C0C0C0C012
:1046A800C0C0C0CC804C804C805E805280528073E9
:1046B800806180610000000000000000C0C08060D0
:1046C80080610033003B001E000C000C001E001F20
:1046D800003B80718061C0C0000000000000000045
:1046E800C0C08061806100330033001E001E000CD2
:1046F800000C000C000C000C000C000C000000006A
:1047080000000000803F803F800100030003000696
:10471800000C000C0018001800300060807F807FBB
:10472800000000000000000F000F000C000C000C3F
:10473800000C000C000C000C000C000C000C000C11
:10474800000C000C000C000F000F000000180018EF
:104758000018000C000C000C000C000600060006F7
:104768000006000300030003000000000000001E14
:10477800001E0006000600060006000600060006E9
:104788000006000600060006000600060006001ED9
:10479800001E0000000C000C001E00120033003345
:1047A800806180610000000000000000000000003F
:1047B80000000000000000000000000000000000F1
:1047C80000000000000000000000000000000000E1
:1047D800000000000000E0FF0000000000380018A2
:1047E800000C0000000000000000000000000000B5
:1047F80000000000000000000000000000000000B1
:104808000000000000000000001F803F8061800160
:10481800801F803F80618063807FC0380000000077
:10482800000000000060006000600060006E007F13
:10483800807380618061806180618073007F006E19
:104848000000000000000000000000000000000060
:10485800001E003F8073806100600060806180738B
:10486800003F001E000000000000000080018001E1
:1048780080018001801D803F80738061806180613C
:1048880080618073803F801D0000000000000000F0
:104898000000000000000000001E003F007380615F
:1048A800807F807F00608071003F001E0000000054
:1048B80000000000C007C00F000C000C807F807F44
:1048C800000C000C000C000C000C000C000C000C80
:1048D8000000000000000000000000000000801D33
:1048E800803F807380618061806180618073803FD8
:1048F800801D80018063007F003E00000060006032
:1049080000600060006F807F8071806180618061DD
:10491800806180618061806100000000000000000B
:104928000006000600000000003E003E00060006EB
:10493800000600060006000600060006000000004B
:1049480000000006000600000000003E003E0006D1
:10495800000600060006000600060006000600061F
:104968000046007E003C00000060006000600060BF
:10497800806100630066006C007C00760063006361
:104988008061C0600000000000000000003E003EA2
:1049980000060006000600060006000600060006DF
:1049A80000060006000600060000000000000000E7
:1049B800000000000000000080DDC0FFC0CEC0CCB9
:1049C800C0CCC0CCC0CCC0CCC0CCC0CC0000000097
:1049D800000000000000000000000000006F807F61
:1049E80080718061806180618061806180618061A7
:1049F80000000000000000000000000000000000AF
:104A0800001E003F807380618061806180618073D7
:104A1800003F001E00000000000000000000000031
:104A28000000006E007F807380618061806180611A
:104A38008073007F006E006000600060006000000E
:104A4800000000000000801D803F8073806180614D
:104A5800806180618073803F801D800180018001BA
:104A68008001000000000000000000000067803F97
:104A780000390030003000300030003000300030A5
:104A8800000000000000000000000000000000001E
:104A9800001E803F80610060007F803F8001806150
:104AA800007F001E00000000000000000000000859
:104AB80000180018007F007F001800180018001860
:104AC80000180018801F800F000000000000000080
:104AD800000000000000000080618061806180614A
:104AE8008061806180618063807F803D000000007C
:104AF800000000000000000000000000C0608031DD
:104B080080318031001B001B001B000E000E0006C8
:104B1800000000000000000000000000000000008D
:104B280080DD80DD80DD0055005500550077007779
:104B38000022002200000000000000000000000029
:104B480000000000806100330033001E000C000CE0
:104B5800001E0033003380610000000000000000E8
:104B68000000000000008061806180310033003364
:104B7800001B001B001B000E000E000E001C007C1A
:104B8800007000000000000000000000C07FC07F2F
:104B9800800100030006000C00180030C07FC07FB1
:104BA80000000000000080038007000600060006E1
:104BB80000060006000E001C001C000E0006000681
:104BC80000060006000680078003000600060006AF
:104BD800000600060006000600060006000600069D
:104BE800000600060006000600060006000600385B
:104BF800003C000C000C000C000C000C000E000720
:104C08000007000E000C000C000C000C000C003C0F
:104C18000038000000000000000000000000000054
:104C28008038807F0047000000000000000000007E
:104C3800000000000000000000000000000000006C
:104C4800000000000000000000000010001000102C
:104C580000100010001000000010000000000028E4
:104C680000280028000000000000000000000000EC
:104C7800000000240024007C00240048007C004838
:104C880000480000000000380054005000380014AC
:104C98000054005400380010000000200054005850
:104CA8000030002800540014000800000000001024
:104CB8000028002800100034004800480034000094
:104CC80000000010001000100000000000000000AC
:104CD8000000000000000008001000200020002054
:104CE800002000200020001000080020001000080C
:104CF8000008000800080008000800100020001044
:104D0800003800100028000000000000000000002B
:104D180000000000000000100010007C00100010CF
:104D2800000000000000000000000000000000007B
:104D3800000000000010001000100000000000003B
:104D48000000000000380000000000000000000023
:104D5800000000000000000000000000001000003B
:104D680000000008000800100010001000100020CB
:104D780000200000000000380044004400540044B3
:104D880000440044003800000000001000300050CB
:104D98000010001000100010001000000000003883
:104DA800004400440004000800100020007C0000BB
:104DB8000000003800440004001800040004004407
:104DC80000380000000000080018002800280048EB
:104DD800007C0008000800000000007C0040004043
:104DE8000078000400040044003800000000003887
:104DF80000440040007800440044004400380000AB
:104E08000000007C000400080010001000200020B2
:104E1800002000000000003800440044003800442E
:104E280000440044003800000000003800440044FA
:104E38000044003C0004004400380000000000006A
:104E4800000000100000000000000000001000003A
:104E5800000000000000000000100000000000003A
:104E680000100010001000000000000C003000408E
:104E78000030000C000000000000000000000000EE
:104E8800007C0000007C0000000000000000000022
:104E98000000006000180004001800600000000016
:104EA8000000003800440004000800100010000052
:104EB80000100000000000380044004C0054005C62
:104EC80000400040003800000000001000280028C2
:104ED80000280028007C00440044000000000078FE
:104EE8000044004400780044004400440078000076
:104EF80000000038004400400040004000400044EA
:104F080000380000000000700048004400440044DD
:104F180000440048007000000000007C0040004091
:104F2800007C004000400040007C00000000007C45
:104F38000040004000780040004000400040000071
:104F480000000038004400400040005C0044004479
:104F5800003800000000004400440044007C004485
:104F68000044004400440000000000380010001015
:104F780000100010001000100038000000000004AD
:104F88000004000400040004000400440038000089
:104F980000000044004800500060005000480048ED
:104FA8000044000000000040004000400040004075
:104FB80000400040007C000000000044006C006CD1
:104FC8000054004400440044004400000000004431
:104FD8000064006400540054004C004C004400007D
:104FE80000000038004400440044004400440044E9
:104FF80000380000000000780044004400440078B5
:105008000040004000400000000000380044004418
:1050180000440044004400540038000400000078B4
:105028000044004400440078004800480044000060
:10503800000000380044004000300008000400442C
:10504800003800000000007C001000100010001064
:10505800001000100010000000000044004400444C
:1050680000440044004400440038000000000044AC
:105078000044004400280028002800100010000008
:10508800000000440044005400540054006C002800
:10509800002800000000004400280028001000102C
:1050A80000280028004400000000004400440028B4
:1050B8000028001000100010001000000000007C04
:1050C800000400080010001000200040007C0000D0
:1050D8000000001800100010001000100010001050
:1050E8000010001000180020002000100010001010
:1050F8000010000800080000000000300010001038
:1051080000100010001000100010001000300010F7
:1051180000280028004400000000000000000000F3
:105128000000000000000000000000000000000077
:105138000000000000FE0020001000000000000039
:10514800000000000000000000000000000000381F
:105158000044003C0044004C0034000000000040C3
:1051680000400058006400440044006400580000F7
:1051780000000000000000380044004000400044E7
:10518800003800000000000400040034004C004413
:105198000044004C0034000000000000000000380B
:1051A8000044007C00400044003800000000000C6F
:1051B8000010007C0010001000100010001000000B
:1051C8000000000000000034004C00440044004C83
:1051D8000034000400780040004000580064004497
:1051E800004400440044000000000010000000706B
:1051F8000010001000100010001000000000001047
:1052080000000070001000100010001000100010C6
:1052180000E0004000400048005000600050004896
:105228000044000000000070001000100010001082
:1052380000100010001000000000000000000078BE
:1052480000540054005400540054000000000000B2
:10525800000000580064004400440044004400007A
:1052680000000000000000380044004400440044EE
:1052780000380000000000000000005800640044EE
:105288000044006400580040004000000000003462
:10529800004C00440044004C0034000400040000AA
:1052A800000000580064004000400040004000003A
:1052B80000000000000000380044003000080044EE
:1052C80000380000000000200020007800200020A6
:1052D800002000200018000000000000000000442A
:1052E800004400440044004C00340000000000006A
:1052F8000000004400440028002800280010000096
:10530800000000000000005400540054006C002805
:1053180000280000000000000000004400280010E1
:1053280000100028004400000000000000000044B5
:105338000044002800280010001000100060000041
:105348000000007C0008001000200040007C0000E5
:1053580000000018001000100010002000200010AD
:1053680000100010001800100010001000100010AD
:105378000010001000100010001000300010001085
:105388000010000800080010001000100030000095
:10539800000000000074004C000000000000000045
:1053A80000001B5B33326D20493243205374617215
:1053B80074205363616E201B5B306D0A0D000A0D6B
:1053C8001B5B33366D204932432046494E443A2010
:1053D8003078000A0D1B5B33326D2049324320457B
:1053E8006E64205363616E201B5B306D0A0D001BD9
:1053F8005B313B33326D205354415254200A0D1B0C
:105408005B306D00253032643A253032643A2530FD
:10541800326400544D503130303A2025642E253006
:105428003264202A430A004745543A200073740026
:105438002C005345542054494D45202D3E202532FB
:10544800643A253264200D0A00696E760000000077
:105458005245454E54206D616C6C6F6320737563C3
:1054680063656564656400002E2E2F2E2E2F2E2E68
:105478002F2E2E2F2E2E2F2E2E2F2E2E2F2E2E2F3E
:105488006E65776C69622F6C6962632F73747269D9
:105498006E672F737472746F6B2E63003031323302
:1054A8003435363738396162636465666768696AB6
:1054B8006B6C6D6E6F707172737475767778797ABC
:1054C800000000002C2066756E6374696F6E3A20C8
:1054D80000000000617373657274696F6E20222585
:1054E8007322206661696C65643A2066696C652080
:1054F800222573222C206C696E652025642573256E
:10550800730A0000232D302B20000000686C4C002B
:1055180065666745464700003031323334353637E3
:1055280038394142434445460000000030313233A7
:1055380034353637383961626364656600000000C7
:04554800090300084B
:04554C00E102000870
:105550000090D0030090D0030C0000200000000059
:10556000703E0008503E0008303E00080000000079
:10557000000000000000000000000000000000002B
:10558000000000000000000000000000000000001B
:10559000000000000000000000000000000000000B
:1055A00000000000000000000000000000000000FB
:1055B0000000000000000000000000000B120000CE
:1055C000E23E0008070A00003E4C0008010000000F
:0400000508003CAD06
:00000001FF
